{
  "contractName": "DiceMarket",
  "abi": [
    {
      "inputs": [
        {
          "internalType": "contract Dice",
          "name": "diceAddress",
          "type": "address"
        },
        {
          "internalType": "uint256",
          "name": "fee",
          "type": "uint256"
        }
      ],
      "stateMutability": "nonpayable",
      "type": "constructor"
    },
    {
      "inputs": [],
      "name": "numDices",
      "outputs": [
        {
          "internalType": "uint256",
          "name": "",
          "type": "uint256"
        }
      ],
      "stateMutability": "view",
      "type": "function"
    },
    {
      "inputs": [
        {
          "internalType": "uint256",
          "name": "",
          "type": "uint256"
        }
      ],
      "name": "priceList",
      "outputs": [
        {
          "internalType": "uint256",
          "name": "",
          "type": "uint256"
        }
      ],
      "stateMutability": "view",
      "type": "function"
    },
    {
      "inputs": [
        {
          "internalType": "uint256",
          "name": "id",
          "type": "uint256"
        },
        {
          "internalType": "uint256",
          "name": "price",
          "type": "uint256"
        }
      ],
      "name": "list",
      "outputs": [],
      "stateMutability": "nonpayable",
      "type": "function"
    },
    {
      "inputs": [
        {
          "internalType": "uint256",
          "name": "id",
          "type": "uint256"
        }
      ],
      "name": "unlist",
      "outputs": [],
      "stateMutability": "nonpayable",
      "type": "function"
    },
    {
      "inputs": [
        {
          "internalType": "uint256",
          "name": "id",
          "type": "uint256"
        }
      ],
      "name": "checkPrice",
      "outputs": [
        {
          "internalType": "uint256",
          "name": "",
          "type": "uint256"
        }
      ],
      "stateMutability": "view",
      "type": "function"
    },
    {
      "inputs": [
        {
          "internalType": "uint256",
          "name": "id",
          "type": "uint256"
        }
      ],
      "name": "buy",
      "outputs": [],
      "stateMutability": "payable",
      "type": "function"
    }
  ],
  "bytecode": "0x608060405260006003553480156200001657600080fd5b5060405162000da138038062000da183398181016040528101906200003c919062000144565b816000806101000a81548173ffffffffffffffffffffffffffffffffffffffff021916908373ffffffffffffffffffffffffffffffffffffffff1602179055508060018190555050506200018b565b600080fd5b600073ffffffffffffffffffffffffffffffffffffffff82169050919050565b6000620000bd8262000090565b9050919050565b6000620000d182620000b0565b9050919050565b620000e381620000c4565b8114620000ef57600080fd5b50565b6000815190506200010381620000d8565b92915050565b6000819050919050565b6200011e8162000109565b81146200012a57600080fd5b50565b6000815190506200013e8162000113565b92915050565b600080604083850312156200015e576200015d6200008b565b5b60006200016e85828601620000f2565b925050602062000181858286016200012d565b9150509250929050565b610c06806200019b6000396000f3fe6080604052600436106100555760003560e01c8063045585a41461005a5780631de7463a1461009757806350fd7367146100d4578063bf5a4dd3146100fd578063d96a094a14610126578063de2271fe14610142575b600080fd5b34801561006657600080fd5b50610081600480360381019061007c919061084f565b61016d565b60405161008e919061088b565b60405180910390f35b3480156100a357600080fd5b506100be60048036038101906100b9919061084f565b610185565b6040516100cb919061088b565b60405180910390f35b3480156100e057600080fd5b506100fb60048036038101906100f691906108a6565b6101a2565b005b34801561010957600080fd5b50610124600480360381019061011f919061084f565b6103a1565b005b610140600480360381019061013b919061084f565b61058e565b005b34801561014e57600080fd5b5061015761080e565b604051610164919061088b565b60405180910390f35b60046020528060005260406000206000915090505481565b600060046000838152602001908152602001600020549050919050565b60015460008054906101000a900473ffffffffffffffffffffffffffffffffffffffff1673ffffffffffffffffffffffffffffffffffffffff1663a819604c846040518263ffffffff1660e01b81526004016101fe919061088b565b602060405180830381865afa15801561021b573d6000803e3d6000fd5b505050506040513d601f19601f8201168201806040525081019061023f91906108fb565b6102499190610957565b81101561028b576040517f08c379a0000000000000000000000000000000000000000000000000000000008152600401610282906109e8565b60405180910390fd5b60008054906101000a900473ffffffffffffffffffffffffffffffffffffffff1673ffffffffffffffffffffffffffffffffffffffff1663b223c5ca836040518263ffffffff1660e01b81526004016102e4919061088b565b602060405180830381865afa158015610301573d6000803e3d6000fd5b505050506040513d601f19601f820116820180604052508101906103259190610a66565b73ffffffffffffffffffffffffffffffffffffffff163373ffffffffffffffffffffffffffffffffffffffff161461035c57600080fd5b80600460008481526020019081526020016000208190555060028290806001815401808255809150506001900390600052602060002001600090919091909150555050565b60008054906101000a900473ffffffffffffffffffffffffffffffffffffffff1673ffffffffffffffffffffffffffffffffffffffff1663b223c5ca826040518263ffffffff1660e01b81526004016103fa919061088b565b602060405180830381865afa158015610417573d6000803e3d6000fd5b505050506040513d601f19601f8201168201806040525081019061043b9190610a66565b73ffffffffffffffffffffffffffffffffffffffff163373ffffffffffffffffffffffffffffffffffffffff161461047257600080fd5b60008054906101000a900473ffffffffffffffffffffffffffffffffffffffff1673ffffffffffffffffffffffffffffffffffffffff1663b7760c8f82336040518363ffffffff1660e01b81526004016104cd929190610aa2565b600060405180830381600087803b1580156104e757600080fd5b505af11580156104fb573d6000803e3d6000fd5b50505050600460008281526020019081526020016000206000905560005b6002805490508160ff16101561058a578160028260ff168154811061054157610540610acb565b5b9060005260206000200154036105775760028160ff168154811061056857610567610acb565b5b90600052602060002001600090555b808061058290610b07565b915050610519565b5050565b60015460046000838152602001908152602001600020546105af9190610957565b3410156105f1576040517f08c379a00000000000000000000000000000000000000000000000000000000081526004016105e8906109e8565b60405180910390fd5b60005b6002805490508160ff1610156107c8578160028260ff168154811061061c5761061b610acb565b5b9060005260206000200154036107b55760008054906101000a900473ffffffffffffffffffffffffffffffffffffffff1673ffffffffffffffffffffffffffffffffffffffff1663b223c5ca836040518263ffffffff1660e01b8152600401610685919061088b565b602060405180830381865afa1580156106a2573d6000803e3d6000fd5b505050506040513d601f19601f820116820180604052508101906106c69190610a66565b73ffffffffffffffffffffffffffffffffffffffff166108fc600154346106ed9190610b30565b9081150290604051600060405180830381858888f19350505050158015610718573d6000803e3d6000fd5b5060008054906101000a900473ffffffffffffffffffffffffffffffffffffffff1673ffffffffffffffffffffffffffffffffffffffff1663b7760c8f83336040518363ffffffff1660e01b8152600401610774929190610aa2565b600060405180830381600087803b15801561078e57600080fd5b505af11580156107a2573d6000803e3d6000fd5b505050506107af826103a1565b5061080b565b80806107c090610b07565b9150506105f4565b50600061080a576040517f08c379a000000000000000000000000000000000000000000000000000000000815260040161080190610bb0565b60405180910390fd5b5b50565b60035481565b600080fd5b6000819050919050565b61082c81610819565b811461083757600080fd5b50565b60008135905061084981610823565b92915050565b60006020828403121561086557610864610814565b5b60006108738482850161083a565b91505092915050565b61088581610819565b82525050565b60006020820190506108a0600083018461087c565b92915050565b600080604083850312156108bd576108bc610814565b5b60006108cb8582860161083a565b92505060206108dc8582860161083a565b9150509250929050565b6000815190506108f581610823565b92915050565b60006020828403121561091157610910610814565b5b600061091f848285016108e6565b91505092915050565b7f4e487b7100000000000000000000000000000000000000000000000000000000600052601160045260246000fd5b600061096282610819565b915061096d83610819565b925082820190508082111561098557610984610928565b5b92915050565b600082825260208201905092915050565b7f707269636520746f6f206c6f7721000000000000000000000000000000000000600082015250565b60006109d2600e8361098b565b91506109dd8261099c565b602082019050919050565b60006020820190508181036000830152610a01816109c5565b9050919050565b600073ffffffffffffffffffffffffffffffffffffffff82169050919050565b6000610a3382610a08565b9050919050565b610a4381610a28565b8114610a4e57600080fd5b50565b600081519050610a6081610a3a565b92915050565b600060208284031215610a7c57610a7b610814565b5b6000610a8a84828501610a51565b91505092915050565b610a9c81610a28565b82525050565b6000604082019050610ab7600083018561087c565b610ac46020830184610a93565b9392505050565b7f4e487b7100000000000000000000000000000000000000000000000000000000600052603260045260246000fd5b600060ff82169050919050565b6000610b1282610afa565b915060ff8203610b2557610b24610928565b5b600182019050919050565b6000610b3b82610819565b9150610b4683610819565b9250828203905081811115610b5e57610b5d610928565b5b92915050565b7f4e6f2073756368206469636520666f722073616c652100000000000000000000600082015250565b6000610b9a60168361098b565b9150610ba582610b64565b602082019050919050565b60006020820190508181036000830152610bc981610b8d565b905091905056fea2646970667358221220cc28453931c74558c1e06a793fde70efec1698d55423cc4ce1c5e3d68b20b3bf64736f6c63430008130033",
  "immutableReferences": {},
  "source": "pragma solidity ^0.8.19;\nimport \"./Dice.sol\";\n\ncontract DiceMarket {\n    \n    Dice diceContract;  \n    uint256 commissionFee;\n    uint256[] diceForSale;\n    \n    uint256 public numDices = 0;\n    mapping(uint256 => uint256) public priceList;\n\n    constructor(Dice diceAddress, uint256 fee) public {\n        diceContract = diceAddress;\n        commissionFee = fee;\n    }\n\n    function list(uint256 id, uint256 price) public \n    {\n        require(price >= diceContract.getDiceValue(id) + commissionFee, \"price too low!\");\n        require(msg.sender == diceContract.getDicePrevOwner(id));\n        priceList[id] = price;\n        diceForSale.push(id);  // dice\n    }\n\n    function unlist(uint256 id) public \n    {\n        require(msg.sender == diceContract.getDicePrevOwner(id));\n        diceContract.transfer(id, msg.sender);\n        delete priceList[id];\n        for (uint8 i = 0; i < diceForSale.length; i++)\n        {\n            if (diceForSale[i] == id)\n            {\n                delete diceForSale[i];\n            }\n        }\n    }\n  \n    function checkPrice(uint256 id) public view returns (uint256) \n    {\n        return priceList[id];\n    }\n\n    function buy(uint256 id) public payable\n    {\n        require(msg.value >= priceList[id] + commissionFee, \"price too low!\");\n        for (uint8 i = 0; i < diceForSale.length; i++)\n        {\n            if (diceForSale[i] == id)\n            {\n                // address payable myaccount = address(uint160(diceContract.getDicePrevOwner(id)));  // address can explicitly converted to address payable\n                payable(diceContract.getDicePrevOwner(id)).transfer(msg.value - commissionFee);\n                diceContract.transfer(id, msg.sender);\n                unlist(id);\n                return;\n            }\n        }\n        require(false, \"No such dice for sale!\");\n    }\n    \n}\n",
  "sourcePath": "/Users/wurunpu/Downloads/semester 1/FT5004/lab3/contracts/DiceMarket.sol",
  "compiler": {
    "name": "solc",
    "version": "0.8.19+commit.7dd6d404.Emscripten.clang"
  },
  "schemaVersion": "3.4.13",
  "updatedAt": "2023-04-04T14:22:43.437Z",
  "devdoc": {
    "kind": "dev",
    "methods": {},
    "version": 1
  },
  "userdoc": {
    "kind": "user",
    "methods": {},
    "version": 1
  }
}