{
  "contractName": "Dice",
  "abi": [
    {
      "anonymous": false,
      "inputs": [
        {
          "indexed": false,
          "internalType": "uint256",
          "name": "diceId",
          "type": "uint256"
        },
        {
          "indexed": false,
          "internalType": "uint8",
          "name": "newluckyTimes",
          "type": "uint8"
        }
      ],
      "name": "luckytimesEvent",
      "type": "event"
    },
    {
      "anonymous": false,
      "inputs": [
        {
          "indexed": false,
          "internalType": "uint256",
          "name": "diceId",
          "type": "uint256"
        },
        {
          "indexed": false,
          "internalType": "uint8",
          "name": "newNumber",
          "type": "uint8"
        }
      ],
      "name": "rolled",
      "type": "event"
    },
    {
      "anonymous": false,
      "inputs": [
        {
          "indexed": false,
          "internalType": "uint256",
          "name": "diceId",
          "type": "uint256"
        }
      ],
      "name": "rolling",
      "type": "event"
    },
    {
      "inputs": [
        {
          "internalType": "uint256",
          "name": "",
          "type": "uint256"
        }
      ],
      "name": "dices",
      "outputs": [
        {
          "internalType": "uint8",
          "name": "luckyTimes",
          "type": "uint8"
        },
        {
          "internalType": "uint8",
          "name": "numberOfSides",
          "type": "uint8"
        },
        {
          "internalType": "uint8",
          "name": "color",
          "type": "uint8"
        },
        {
          "internalType": "uint8",
          "name": "currentNumber",
          "type": "uint8"
        },
        {
          "internalType": "enum Dice.diceState",
          "name": "state",
          "type": "uint8"
        },
        {
          "internalType": "uint256",
          "name": "creationValue",
          "type": "uint256"
        },
        {
          "internalType": "address",
          "name": "owner",
          "type": "address"
        },
        {
          "internalType": "address",
          "name": "prevOwner",
          "type": "address"
        }
      ],
      "stateMutability": "view",
      "type": "function",
      "constant": true
    },
    {
      "inputs": [],
      "name": "numDices",
      "outputs": [
        {
          "internalType": "uint256",
          "name": "",
          "type": "uint256"
        }
      ],
      "stateMutability": "view",
      "type": "function",
      "constant": true
    },
    {
      "inputs": [
        {
          "internalType": "uint8",
          "name": "numberOfSides",
          "type": "uint8"
        },
        {
          "internalType": "uint8",
          "name": "color",
          "type": "uint8"
        }
      ],
      "name": "add",
      "outputs": [
        {
          "internalType": "uint256",
          "name": "",
          "type": "uint256"
        }
      ],
      "stateMutability": "payable",
      "type": "function",
      "payable": true
    },
    {
      "inputs": [
        {
          "internalType": "uint256",
          "name": "diceId",
          "type": "uint256"
        }
      ],
      "name": "roll",
      "outputs": [],
      "stateMutability": "nonpayable",
      "type": "function"
    },
    {
      "inputs": [
        {
          "internalType": "uint256",
          "name": "diceId",
          "type": "uint256"
        }
      ],
      "name": "stopRoll",
      "outputs": [],
      "stateMutability": "nonpayable",
      "type": "function"
    },
    {
      "inputs": [
        {
          "internalType": "uint256",
          "name": "diceId",
          "type": "uint256"
        },
        {
          "internalType": "address",
          "name": "newOwner",
          "type": "address"
        }
      ],
      "name": "transfer",
      "outputs": [],
      "stateMutability": "nonpayable",
      "type": "function"
    },
    {
      "inputs": [
        {
          "internalType": "uint256",
          "name": "diceId",
          "type": "uint256"
        }
      ],
      "name": "destroyDice",
      "outputs": [],
      "stateMutability": "nonpayable",
      "type": "function"
    },
    {
      "inputs": [
        {
          "internalType": "uint256",
          "name": "diceId",
          "type": "uint256"
        }
      ],
      "name": "getDiceSides",
      "outputs": [
        {
          "internalType": "uint8",
          "name": "",
          "type": "uint8"
        }
      ],
      "stateMutability": "view",
      "type": "function",
      "constant": true
    },
    {
      "inputs": [
        {
          "internalType": "uint256",
          "name": "diceId",
          "type": "uint256"
        }
      ],
      "name": "getDiceNumber",
      "outputs": [
        {
          "internalType": "uint8",
          "name": "",
          "type": "uint8"
        }
      ],
      "stateMutability": "view",
      "type": "function",
      "constant": true
    },
    {
      "inputs": [
        {
          "internalType": "uint256",
          "name": "diceId",
          "type": "uint256"
        }
      ],
      "name": "getDiceValue",
      "outputs": [
        {
          "internalType": "uint256",
          "name": "",
          "type": "uint256"
        }
      ],
      "stateMutability": "view",
      "type": "function",
      "constant": true
    },
    {
      "inputs": [
        {
          "internalType": "uint256",
          "name": "diceId",
          "type": "uint256"
        }
      ],
      "name": "getDiceLuckyTimes",
      "outputs": [
        {
          "internalType": "uint8",
          "name": "",
          "type": "uint8"
        }
      ],
      "stateMutability": "view",
      "type": "function",
      "constant": true
    },
    {
      "inputs": [
        {
          "internalType": "uint256",
          "name": "diceId",
          "type": "uint256"
        }
      ],
      "name": "getDicePrevOwner",
      "outputs": [
        {
          "internalType": "address",
          "name": "",
          "type": "address"
        }
      ],
      "stateMutability": "view",
      "type": "function",
      "constant": true
    }
  ],
  "bytecode": "0x60806040526000805534801561001457600080fd5b50611415806100246000396000f3fe6080604052600436106100a75760003560e01c8063a98c5b7111610064578063a98c5b71146101e5578063b223c5ca14610222578063b7760c8f1461025f578063bb4e3f4d14610288578063de2271fe146102b8578063ee2fa39c146102e3576100a7565b80631e76dcdd146100ac5780631f7b4f30146100d557806329265db0146100fe578063901792ca14610127578063912475ba14610164578063a819604c146101a8575b600080fd5b3480156100b857600080fd5b506100d360048036038101906100ce9190610ea6565b610320565b005b3480156100e157600080fd5b506100fc60048036038101906100f79190610ea6565b61058d565b005b34801561010a57600080fd5b5061012560048036038101906101209190610ea6565b6106b5565b005b34801561013357600080fd5b5061014e60048036038101906101499190610ea6565b61087a565b60405161015b9190610eef565b60405180910390f35b34801561017057600080fd5b5061018b60048036038101906101869190610ea6565b6108b7565b60405161019f989796959493929190610fd1565b60405180910390f35b3480156101b457600080fd5b506101cf60048036038101906101ca9190610ea6565b610980565b6040516101dc919061104f565b60405180910390f35b3480156101f157600080fd5b5061020c60048036038101906102079190610ea6565b6109b0565b6040516102199190610eef565b60405180910390f35b34801561022e57600080fd5b5061024960048036038101906102449190610ea6565b6109ed565b604051610256919061106a565b60405180910390f35b34801561026b57600080fd5b50610286600480360381019061028191906110b1565b610a3d565b005b6102a2600480360381019061029d919061111d565b610ba1565b6040516102af919061104f565b60405180910390f35b3480156102c457600080fd5b506102cd610e28565b6040516102da919061104f565b60405180910390f35b3480156102ef57600080fd5b5061030a60048036038101906103059190610ea6565b610e2e565b6040516103179190610eef565b60405180910390f35b803373ffffffffffffffffffffffffffffffffffffffff166001600083815260200190815260200160002060020160009054906101000a900473ffffffffffffffffffffffffffffffffffffffff1673ffffffffffffffffffffffffffffffffffffffff161461038f57600080fd5b81600054811061039e57600080fd5b60006001600085815260200190815260200160002060000160046101000a81548160ff021916908360018111156103d8576103d7610f0a565b5b02179055506000600180600086815260200190815260200160002060000160019054906101000a900460ff1660ff16600186610414919061118c565b4261041f91906111c0565b6104299190611231565b6104339190611262565b9050806001600086815260200190815260200160002060000160036101000a81548160ff021916908360ff1602179055508060ff166001600086815260200190815260200160002060000160019054906101000a900460ff1660ff160361054e57600180600086815260200190815260200160002060000160009054906101000a900460ff166104c39190611262565b6001600086815260200190815260200160002060000160006101000a81548160ff021916908360ff1602179055507f5eb3ac696cd88d7c0027515183f03acb4b50881518c429b03cab49811e8f6961846001600087815260200190815260200160002060000160009054906101000a900460ff16604051610545929190611297565b60405180910390a15b7ffca7e5ead94c99a33f4db0e5e7ed5266f833f73d27b83852ab0429662c60f5bf848260405161057f929190611297565b60405180910390a150505050565b803373ffffffffffffffffffffffffffffffffffffffff166001600083815260200190815260200160002060020160009054906101000a900473ffffffffffffffffffffffffffffffffffffffff1673ffffffffffffffffffffffffffffffffffffffff16146105fc57600080fd5b81600054811061060b57600080fd5b600180600085815260200190815260200160002060000160046101000a81548160ff0219169083600181111561064457610643610f0a565b5b021790555060006001600085815260200190815260200160002060000160036101000a81548160ff021916908360ff1602179055507f168812357336ee7b54afff4280d17ba364831e5c2d0eb5a3fa2d2634e5e77a86836040516106a8919061104f565b60405180910390a1505050565b803373ffffffffffffffffffffffffffffffffffffffff166001600083815260200190815260200160002060020160009054906101000a900473ffffffffffffffffffffffffffffffffffffffff1673ffffffffffffffffffffffffffffffffffffffff161461072457600080fd5b81600054811061073357600080fd5b60016000848152602001908152602001600020600080820160006101000a81549060ff02191690556000820160016101000a81549060ff02191690556000820160026101000a81549060ff02191690556000820160036101000a81549060ff02191690556000820160046101000a81549060ff021916905560018201600090556002820160006101000a81549073ffffffffffffffffffffffffffffffffffffffff02191690556003820160006101000a81549073ffffffffffffffffffffffffffffffffffffffff02191690555050600160005461081291906112c0565b6000819055503373ffffffffffffffffffffffffffffffffffffffff166108fc60016000868152602001908152602001600020600101549081150290604051600060405180830381858888f19350505050158015610874573d6000803e3d6000fd5b50505050565b600081600054811061088b57600080fd5b6001600084815260200190815260200160002060000160009054906101000a900460ff16915050919050565b60016020528060005260406000206000915090508060000160009054906101000a900460ff16908060000160019054906101000a900460ff16908060000160029054906101000a900460ff16908060000160039054906101000a900460ff16908060000160049054906101000a900460ff16908060010154908060020160009054906101000a900473ffffffffffffffffffffffffffffffffffffffff16908060030160009054906101000a900473ffffffffffffffffffffffffffffffffffffffff16905088565b600081600054811061099157600080fd5b6001600084815260200190815260200160002060010154915050919050565b60008160005481106109c157600080fd5b6001600084815260200190815260200160002060000160039054906101000a900460ff16915050919050565b60008160005481106109fe57600080fd5b6001600084815260200190815260200160002060030160009054906101000a900473ffffffffffffffffffffffffffffffffffffffff16915050919050565b813373ffffffffffffffffffffffffffffffffffffffff166001600083815260200190815260200160002060020160009054906101000a900473ffffffffffffffffffffffffffffffffffffffff1673ffffffffffffffffffffffffffffffffffffffff1614610aac57600080fd5b826000548110610abb57600080fd5b6001600085815260200190815260200160002060020160009054906101000a900473ffffffffffffffffffffffffffffffffffffffff166001600086815260200190815260200160002060030160006101000a81548173ffffffffffffffffffffffffffffffffffffffff021916908373ffffffffffffffffffffffffffffffffffffffff160217905550826001600086815260200190815260200160002060020160006101000a81548173ffffffffffffffffffffffffffffffffffffffff021916908373ffffffffffffffffffffffffffffffffffffffff16021790555050505050565b6000808360ff1611610bb257600080fd5b662386f26fc100003411610bfb576040517f08c379a0000000000000000000000000000000000000000000000000000000008152600401610bf290611377565b60405180910390fd5b6000604051806101000160405280600060ff1681526020018560ff1681526020018460ff16815260200160018660ff1642610c369190611231565b610c409190611262565b60ff16815260200160006001811115610c5c57610c5b610f0a565b5b81526020013481526020013373ffffffffffffffffffffffffffffffffffffffff168152602001600073ffffffffffffffffffffffffffffffffffffffff1681525090506000806000815480929190610cb490611397565b919050559050816001600083815260200190815260200160002060008201518160000160006101000a81548160ff021916908360ff16021790555060208201518160000160016101000a81548160ff021916908360ff16021790555060408201518160000160026101000a81548160ff021916908360ff16021790555060608201518160000160036101000a81548160ff021916908360ff16021790555060808201518160000160046101000a81548160ff02191690836001811115610d7d57610d7c610f0a565b5b021790555060a0820151816001015560c08201518160020160006101000a81548173ffffffffffffffffffffffffffffffffffffffff021916908373ffffffffffffffffffffffffffffffffffffffff16021790555060e08201518160030160006101000a81548173ffffffffffffffffffffffffffffffffffffffff021916908373ffffffffffffffffffffffffffffffffffffffff160217905550905050809250505092915050565b60005481565b6000816000548110610e3f57600080fd5b6001600084815260200190815260200160002060000160019054906101000a900460ff16915050919050565b600080fd5b6000819050919050565b610e8381610e70565b8114610e8e57600080fd5b50565b600081359050610ea081610e7a565b92915050565b600060208284031215610ebc57610ebb610e6b565b5b6000610eca84828501610e91565b91505092915050565b600060ff82169050919050565b610ee981610ed3565b82525050565b6000602082019050610f046000830184610ee0565b92915050565b7f4e487b7100000000000000000000000000000000000000000000000000000000600052602160045260246000fd5b60028110610f4a57610f49610f0a565b5b50565b6000819050610f5b82610f39565b919050565b6000610f6b82610f4d565b9050919050565b610f7b81610f60565b82525050565b610f8a81610e70565b82525050565b600073ffffffffffffffffffffffffffffffffffffffff82169050919050565b6000610fbb82610f90565b9050919050565b610fcb81610fb0565b82525050565b600061010082019050610fe7600083018b610ee0565b610ff4602083018a610ee0565b6110016040830189610ee0565b61100e6060830188610ee0565b61101b6080830187610f72565b61102860a0830186610f81565b61103560c0830185610fc2565b61104260e0830184610fc2565b9998505050505050505050565b60006020820190506110646000830184610f81565b92915050565b600060208201905061107f6000830184610fc2565b92915050565b61108e81610fb0565b811461109957600080fd5b50565b6000813590506110ab81611085565b92915050565b600080604083850312156110c8576110c7610e6b565b5b60006110d685828601610e91565b92505060206110e78582860161109c565b9150509250929050565b6110fa81610ed3565b811461110557600080fd5b50565b600081359050611117816110f1565b92915050565b6000806040838503121561113457611133610e6b565b5b600061114285828601611108565b925050602061115385828601611108565b9150509250929050565b7f4e487b7100000000000000000000000000000000000000000000000000000000600052601160045260246000fd5b600061119782610e70565b91506111a283610e70565b92508282019050808211156111ba576111b961115d565b5b92915050565b60006111cb82610e70565b91506111d683610e70565b92508282026111e481610e70565b915082820484148315176111fb576111fa61115d565b5b5092915050565b7f4e487b7100000000000000000000000000000000000000000000000000000000600052601260045260246000fd5b600061123c82610e70565b915061124783610e70565b92508261125757611256611202565b5b828206905092915050565b600061126d82610ed3565b915061127883610ed3565b9250828201905060ff8111156112915761129061115d565b5b92915050565b60006040820190506112ac6000830185610f81565b6112b96020830184610ee0565b9392505050565b60006112cb82610e70565b91506112d683610e70565b92508282039050818111156112ee576112ed61115d565b5b92915050565b600082825260208201905092915050565b7f6174206c6561737420302e303120455448206973206e656564656420746f207360008201527f7061776e2061206e657720646963650000000000000000000000000000000000602082015250565b6000611361602f836112f4565b915061136c82611305565b604082019050919050565b6000602082019050818103600083015261139081611354565b9050919050565b60006113a282610e70565b91507fffffffffffffffffffffffffffffffffffffffffffffffffffffffffffffffff82036113d4576113d361115d565b5b60018201905091905056fea2646970667358221220d883ba82a67a6c011852f1c2b14e8697d5dae187131fe2857ec6407295760b5464736f6c63430008130033",
  "immutableReferences": {},
  "source": "pragma solidity ^0.8.19;\n\ncontract Dice {\n    \n    enum diceState { stationary, rolling }\n    \n    struct dice {\n        uint8 luckyTimes;\n        uint8 numberOfSides;\n        uint8 color;\n        uint8 currentNumber;\n        diceState state;\n        uint256 creationValue;\n        address owner;\n        address prevOwner;\n    }\n    \n    event rolling (uint256 diceId);\n    event rolled (uint256 diceId, uint8 newNumber);\n    event luckytimesEvent(uint256 diceId, uint8 newluckyTimes);\n    \n    uint256 public numDices = 0;\n    mapping(uint256 => dice) public dices;\n\n    //function to create a new dice, and add to 'dices' map. requires at least 0.01ETH to create\n    function add(\n        uint8 numberOfSides,\n        uint8 color\n    ) public payable returns(uint256) {\n        require(numberOfSides > 0);\n        require(msg.value > 0.01 ether, \"at least 0.01 ETH is needed to spawn a new dice\");\n        \n        //new dice object\n        dice memory newDice = dice(\n            0,   // here we add the initalization of luckytimes to 0\n            numberOfSides,\n            color,\n            (uint8)(block.timestamp % numberOfSides) + 1,  //non-secure random number\n            diceState.stationary,\n            msg.value,\n            msg.sender,  //owner\n            address(0)\n        );\n        \n        uint256 newDiceId = numDices++;\n        dices[newDiceId] = newDice; //commit to state variable\n        return newDiceId;   //return new diceId\n    }\n\n    //modifier to ensure a function is callable only by its owner    \n    modifier ownerOnly(uint256 diceId) {\n        require(dices[diceId].owner == msg.sender);\n        _;\n    }\n    \n    modifier validDiceId(uint256 diceId) {\n        require(diceId < numDices);\n        _;\n    }\n\n    //owner can roll a dice    \n    function roll(uint256 diceId) public ownerOnly(diceId) validDiceId(diceId) {\n            dices[diceId].state = diceState.rolling;    //set state to rolling\n            dices[diceId].currentNumber = 0;    //number will become 0 while rolling\n            emit rolling(diceId);   //emit rolling event\n    }\n\n    function stopRoll(uint256 diceId) public ownerOnly(diceId) validDiceId(diceId) {\n            dices[diceId].state = diceState.stationary; //set state to stationary\n            \n            //this is not a secure randomization\n            uint8 newNumber = (uint8)((block.timestamp*(diceId+1)) % dices[diceId].numberOfSides) + 1;\n            dices[diceId].currentNumber = newNumber;\n            // here we add the determinaztion \n            if (dices[diceId].numberOfSides == newNumber)\n            {\n                dices[diceId].luckyTimes = dices[diceId].luckyTimes + 1;\n                emit luckytimesEvent(diceId, dices[diceId].luckyTimes);\n            }\n            emit rolled(diceId, newNumber); //emit rolled\n    }\n    \n    //transfer ownership to new owner\n    function transfer(uint256 diceId, address newOwner) public ownerOnly(diceId) validDiceId(diceId) {\n        dices[diceId].prevOwner = dices[diceId].owner;\n        dices[diceId].owner = newOwner;\n    }\n    //Destroy Dice\n    function destroyDice(uint256 diceId) public ownerOnly(diceId) validDiceId(diceId) {\n        delete dices[diceId];\n        numDices = numDices - 1;\n        payable(msg.sender).transfer(dices[diceId].creationValue);\n    }\n    //get number of sides of dice    \n    function getDiceSides(uint256 diceId) public view validDiceId(diceId) returns (uint8) {\n        return dices[diceId].numberOfSides;\n    }\n\n    //get current dice number\n    function getDiceNumber(uint256 diceId) public view validDiceId(diceId) returns (uint8) {\n        return dices[diceId].currentNumber;\n    }\n\n    //get ether put in during creation\n    function getDiceValue(uint256 diceId) public view validDiceId(diceId) returns (uint256) {\n        return dices[diceId].creationValue;\n    }\n    //\n    function getDiceLuckyTimes(uint256 diceId) public view validDiceId(diceId) returns (uint8) {\n        return dices[diceId].luckyTimes;\n    }\n    //get previous owner\n    function getDicePrevOwner(uint256 diceId) public view validDiceId(diceId) returns (address) {\n        return dices[diceId].prevOwner;\n    }\n}\n\n",
  "sourcePath": "/Users/wurunpu/Downloads/semester 1/FT5004/lab3/contracts/Dice.sol",
  "compiler": {
    "name": "solc",
    "version": "0.8.19+commit.7dd6d404.Emscripten.clang"
  },
  "schemaVersion": "3.4.13",
  "updatedAt": "2023-04-04T15:10:11.396Z",
  "networkType": "ethereum",
  "devdoc": {
    "kind": "dev",
    "methods": {},
    "version": 1
  },
  "userdoc": {
    "kind": "user",
    "methods": {},
    "version": 1
  }
}