{
  "contractName": "DiceBattle",
  "abi": [
    {
      "inputs": [
        {
          "internalType": "contract Dice",
          "name": "diceAddress",
          "type": "address"
        }
      ],
      "stateMutability": "nonpayable",
      "type": "constructor"
    },
    {
      "anonymous": false,
      "inputs": [],
      "name": "add_enemy",
      "type": "event"
    },
    {
      "anonymous": false,
      "inputs": [],
      "name": "battlelose",
      "type": "event"
    },
    {
      "anonymous": false,
      "inputs": [],
      "name": "battletie",
      "type": "event"
    },
    {
      "anonymous": false,
      "inputs": [],
      "name": "battlewin",
      "type": "event"
    },
    {
      "inputs": [
        {
          "internalType": "uint256",
          "name": "",
          "type": "uint256"
        }
      ],
      "name": "battles",
      "outputs": [
        {
          "internalType": "uint256",
          "name": "battleId",
          "type": "uint256"
        },
        {
          "internalType": "enum DiceBattle.battleState",
          "name": "state",
          "type": "uint8"
        },
        {
          "internalType": "uint256",
          "name": "diceId_1",
          "type": "uint256"
        },
        {
          "internalType": "uint256",
          "name": "diceId_2",
          "type": "uint256"
        },
        {
          "internalType": "address",
          "name": "diceOwner1",
          "type": "address"
        },
        {
          "internalType": "address",
          "name": "diceOwner2",
          "type": "address"
        },
        {
          "internalType": "address",
          "name": "winner",
          "type": "address"
        },
        {
          "internalType": "address",
          "name": "looser",
          "type": "address"
        }
      ],
      "stateMutability": "view",
      "type": "function",
      "constant": true
    },
    {
      "inputs": [],
      "name": "numBattles",
      "outputs": [
        {
          "internalType": "uint256",
          "name": "",
          "type": "uint256"
        }
      ],
      "stateMutability": "view",
      "type": "function",
      "constant": true
    },
    {
      "inputs": [
        {
          "internalType": "enum DiceBattle.battleState",
          "name": "state",
          "type": "uint8"
        },
        {
          "internalType": "uint256",
          "name": "diceId_1",
          "type": "uint256"
        },
        {
          "internalType": "uint256",
          "name": "diceId_2",
          "type": "uint256"
        },
        {
          "internalType": "address",
          "name": "diceOwner1",
          "type": "address"
        },
        {
          "internalType": "address",
          "name": "diceOwner2",
          "type": "address"
        },
        {
          "internalType": "address",
          "name": "winner",
          "type": "address"
        },
        {
          "internalType": "address",
          "name": "looser",
          "type": "address"
        }
      ],
      "name": "addBattle",
      "outputs": [
        {
          "internalType": "uint256",
          "name": "",
          "type": "uint256"
        }
      ],
      "stateMutability": "nonpayable",
      "type": "function"
    },
    {
      "inputs": [
        {
          "internalType": "uint256",
          "name": "myDice",
          "type": "uint256"
        },
        {
          "internalType": "address",
          "name": "enemy",
          "type": "address"
        }
      ],
      "name": "setBattlePair",
      "outputs": [],
      "stateMutability": "nonpayable",
      "type": "function"
    },
    {
      "inputs": [
        {
          "internalType": "uint256",
          "name": "myDice",
          "type": "uint256"
        },
        {
          "internalType": "uint256",
          "name": "enemyDice",
          "type": "uint256"
        }
      ],
      "name": "Battle",
      "outputs": [],
      "stateMutability": "nonpayable",
      "type": "function"
    },
    {
      "inputs": [
        {
          "internalType": "address",
          "name": "myAddress",
          "type": "address"
        }
      ],
      "name": "getBattlePair",
      "outputs": [
        {
          "internalType": "address",
          "name": "",
          "type": "address"
        }
      ],
      "stateMutability": "view",
      "type": "function",
      "constant": true
    },
    {
      "inputs": [
        {
          "internalType": "uint256",
          "name": "battleId",
          "type": "uint256"
        }
      ],
      "name": "getWinner",
      "outputs": [
        {
          "internalType": "address",
          "name": "",
          "type": "address"
        }
      ],
      "stateMutability": "view",
      "type": "function",
      "constant": true
    },
    {
      "inputs": [
        {
          "internalType": "uint256",
          "name": "battleId",
          "type": "uint256"
        }
      ],
      "name": "getState",
      "outputs": [
        {
          "internalType": "enum DiceBattle.battleState",
          "name": "",
          "type": "uint8"
        }
      ],
      "stateMutability": "view",
      "type": "function",
      "constant": true
    },
    {
      "inputs": [
        {
          "internalType": "uint256",
          "name": "battleId",
          "type": "uint256"
        }
      ],
      "name": "getDiceId1",
      "outputs": [
        {
          "internalType": "uint256",
          "name": "",
          "type": "uint256"
        }
      ],
      "stateMutability": "view",
      "type": "function",
      "constant": true
    },
    {
      "inputs": [
        {
          "internalType": "uint256",
          "name": "battleId",
          "type": "uint256"
        }
      ],
      "name": "getDiceId2",
      "outputs": [
        {
          "internalType": "uint256",
          "name": "",
          "type": "uint256"
        }
      ],
      "stateMutability": "view",
      "type": "function",
      "constant": true
    },
    {
      "inputs": [
        {
          "internalType": "uint256",
          "name": "battleId",
          "type": "uint256"
        }
      ],
      "name": "getAddress1",
      "outputs": [
        {
          "internalType": "address",
          "name": "",
          "type": "address"
        }
      ],
      "stateMutability": "view",
      "type": "function",
      "constant": true
    },
    {
      "inputs": [
        {
          "internalType": "uint256",
          "name": "battleId",
          "type": "uint256"
        }
      ],
      "name": "getAddress2",
      "outputs": [
        {
          "internalType": "address",
          "name": "",
          "type": "address"
        }
      ],
      "stateMutability": "view",
      "type": "function",
      "constant": true
    }
  ],
  "bytecode": "0x608060405260006002553480156200001657600080fd5b50604051620025983803806200259883398181016040528101906200003c919062000101565b806000806101000a81548173ffffffffffffffffffffffffffffffffffffffff021916908373ffffffffffffffffffffffffffffffffffffffff1602179055505062000133565b600080fd5b600073ffffffffffffffffffffffffffffffffffffffff82169050919050565b6000620000b58262000088565b9050919050565b6000620000c982620000a8565b9050919050565b620000db81620000bc565b8114620000e757600080fd5b50565b600081519050620000fb81620000d0565b92915050565b6000602082840312156200011a576200011962000083565b5b60006200012a84828501620000ea565b91505092915050565b61245580620001436000396000f3fe608060405234801561001057600080fd5b50600436106100b45760003560e01c80634129b2c9116100715780634129b2c9146101b357806344c9af28146101e3578063493ca11314610213578063606d2e9614610243578063a9ffca801461027a578063da241e82146102aa576100b4565b80630456f50d146100b957806309a6df3e146100d75780630ad9306f146100f357806325f32c391461012357806329bcf55d146101535780632f57e6b214610183575b600080fd5b6100c16102c6565b6040516100ce9190611eaf565b60405180910390f35b6100f160048036038101906100ec9190611efb565b6102cc565b005b61010d60048036038101906101089190611f3b565b611787565b60405161011a9190611eaf565b60405180910390f35b61013d60048036038101906101389190611f3b565b6117a7565b60405161014a9190611eaf565b60405180910390f35b61016d60048036038101906101689190611fc6565b6117c7565b60405161017a9190612002565b60405180910390f35b61019d60048036038101906101989190611f3b565b611830565b6040516101aa9190612002565b60405180910390f35b6101cd60048036038101906101c89190611f3b565b611870565b6040516101da9190612002565b60405180910390f35b6101fd60048036038101906101f89190611f3b565b6118b0565b60405161020a9190612094565b60405180910390f35b61022d600480360381019061022891906120d4565b6118dd565b60405161023a9190611eaf565b60405180910390f35b61025d60048036038101906102589190611f3b565b611b32565b604051610271989796959493929190612176565b60405180910390f35b610294600480360381019061028f9190611f3b565b611c07565b6040516102a19190612002565b60405180910390f35b6102c460048036038101906102bf91906121f4565b611c47565b005b60025481565b60008054906101000a900473ffffffffffffffffffffffffffffffffffffffff1673ffffffffffffffffffffffffffffffffffffffff1663b223c5ca826040518263ffffffff1660e01b81526004016103259190611eaf565b602060405180830381865afa158015610342573d6000803e3d6000fd5b505050506040513d601f19601f820116820180604052508101906103669190612249565b73ffffffffffffffffffffffffffffffffffffffff16600160008060009054906101000a900473ffffffffffffffffffffffffffffffffffffffff1673ffffffffffffffffffffffffffffffffffffffff1663b223c5ca866040518263ffffffff1660e01b81526004016103da9190611eaf565b602060405180830381865afa1580156103f7573d6000803e3d6000fd5b505050506040513d601f19601f8201168201806040525081019061041b9190612249565b73ffffffffffffffffffffffffffffffffffffffff1673ffffffffffffffffffffffffffffffffffffffff16815260200190815260200160002060009054906101000a900473ffffffffffffffffffffffffffffffffffffffff1673ffffffffffffffffffffffffffffffffffffffff161461049657600080fd5b60008054906101000a900473ffffffffffffffffffffffffffffffffffffffff1673ffffffffffffffffffffffffffffffffffffffff1663b223c5ca836040518263ffffffff1660e01b81526004016104ef9190611eaf565b602060405180830381865afa15801561050c573d6000803e3d6000fd5b505050506040513d601f19601f820116820180604052508101906105309190612249565b73ffffffffffffffffffffffffffffffffffffffff16600160008060009054906101000a900473ffffffffffffffffffffffffffffffffffffffff1673ffffffffffffffffffffffffffffffffffffffff1663b223c5ca856040518263ffffffff1660e01b81526004016105a49190611eaf565b602060405180830381865afa1580156105c1573d6000803e3d6000fd5b505050506040513d601f19601f820116820180604052508101906105e59190612249565b73ffffffffffffffffffffffffffffffffffffffff1673ffffffffffffffffffffffffffffffffffffffff16815260200190815260200160002060009054906101000a900473ffffffffffffffffffffffffffffffffffffffff1673ffffffffffffffffffffffffffffffffffffffff161461066057600080fd5b60008054906101000a900473ffffffffffffffffffffffffffffffffffffffff1673ffffffffffffffffffffffffffffffffffffffff16631f7b4f30836040518263ffffffff1660e01b81526004016106b99190611eaf565b600060405180830381600087803b1580156106d357600080fd5b505af11580156106e7573d6000803e3d6000fd5b5050505060008054906101000a900473ffffffffffffffffffffffffffffffffffffffff1673ffffffffffffffffffffffffffffffffffffffff16631f7b4f30826040518263ffffffff1660e01b81526004016107449190611eaf565b600060405180830381600087803b15801561075e57600080fd5b505af1158015610772573d6000803e3d6000fd5b5050505060008054906101000a900473ffffffffffffffffffffffffffffffffffffffff1673ffffffffffffffffffffffffffffffffffffffff16631e76dcdd836040518263ffffffff1660e01b81526004016107cf9190611eaf565b600060405180830381600087803b1580156107e957600080fd5b505af11580156107fd573d6000803e3d6000fd5b5050505060008054906101000a900473ffffffffffffffffffffffffffffffffffffffff1673ffffffffffffffffffffffffffffffffffffffff16631e76dcdd826040518263ffffffff1660e01b815260040161085a9190611eaf565b600060405180830381600087803b15801561087457600080fd5b505af1158015610888573d6000803e3d6000fd5b5050505060008060009054906101000a900473ffffffffffffffffffffffffffffffffffffffff1673ffffffffffffffffffffffffffffffffffffffff1663a98c5b71846040518263ffffffff1660e01b81526004016108e89190611eaf565b602060405180830381865afa158015610905573d6000803e3d6000fd5b505050506040513d601f19601f8201168201806040525081019061092991906122af565b60ff16905060008060009054906101000a900473ffffffffffffffffffffffffffffffffffffffff1673ffffffffffffffffffffffffffffffffffffffff1663a98c5b71846040518263ffffffff1660e01b815260040161098a9190611eaf565b602060405180830381865afa1580156109a7573d6000803e3d6000fd5b505050506040513d601f19601f820116820180604052508101906109cb91906122af565b60ff169050808203610d985760008054906101000a900473ffffffffffffffffffffffffffffffffffffffff1673ffffffffffffffffffffffffffffffffffffffff1663b7760c8f8560008054906101000a900473ffffffffffffffffffffffffffffffffffffffff1673ffffffffffffffffffffffffffffffffffffffff1663b223c5ca886040518263ffffffff1660e01b8152600401610a6d9190611eaf565b602060405180830381865afa158015610a8a573d6000803e3d6000fd5b505050506040513d601f19601f82011682018060405250810190610aae9190612249565b6040518363ffffffff1660e01b8152600401610acb9291906122dc565b600060405180830381600087803b158015610ae557600080fd5b505af1158015610af9573d6000803e3d6000fd5b5050505060008054906101000a900473ffffffffffffffffffffffffffffffffffffffff1673ffffffffffffffffffffffffffffffffffffffff1663b7760c8f8460008054906101000a900473ffffffffffffffffffffffffffffffffffffffff1673ffffffffffffffffffffffffffffffffffffffff1663b223c5ca876040518263ffffffff1660e01b8152600401610b939190611eaf565b602060405180830381865afa158015610bb0573d6000803e3d6000fd5b505050506040513d601f19601f82011682018060405250810190610bd49190612249565b6040518363ffffffff1660e01b8152600401610bf19291906122dc565b600060405180830381600087803b158015610c0b57600080fd5b505af1158015610c1f573d6000803e3d6000fd5b50505050610d666000858560008054906101000a900473ffffffffffffffffffffffffffffffffffffffff1673ffffffffffffffffffffffffffffffffffffffff1663b223c5ca896040518263ffffffff1660e01b8152600401610c839190611eaf565b602060405180830381865afa158015610ca0573d6000803e3d6000fd5b505050506040513d601f19601f82011682018060405250810190610cc49190612249565b60008054906101000a900473ffffffffffffffffffffffffffffffffffffffff1673ffffffffffffffffffffffffffffffffffffffff1663b223c5ca896040518263ffffffff1660e01b8152600401610d1d9190611eaf565b602060405180830381865afa158015610d3a573d6000803e3d6000fd5b505050506040513d601f19601f82011682018060405250810190610d5e9190612249565b6000806118dd565b507f355ecef682e59c7dd05c1fb278571ea5b34080979c1a58ec510e3808057a293460405160405180910390a1611781565b808210156112925760008054906101000a900473ffffffffffffffffffffffffffffffffffffffff1673ffffffffffffffffffffffffffffffffffffffff1663b7760c8f8560008054906101000a900473ffffffffffffffffffffffffffffffffffffffff1673ffffffffffffffffffffffffffffffffffffffff1663b223c5ca876040518263ffffffff1660e01b8152600401610e369190611eaf565b602060405180830381865afa158015610e53573d6000803e3d6000fd5b505050506040513d601f19601f82011682018060405250810190610e779190612249565b6040518363ffffffff1660e01b8152600401610e949291906122dc565b600060405180830381600087803b158015610eae57600080fd5b505af1158015610ec2573d6000803e3d6000fd5b5050505060008054906101000a900473ffffffffffffffffffffffffffffffffffffffff1673ffffffffffffffffffffffffffffffffffffffff1663b7760c8f8460008054906101000a900473ffffffffffffffffffffffffffffffffffffffff1673ffffffffffffffffffffffffffffffffffffffff1663b223c5ca876040518263ffffffff1660e01b8152600401610f5c9190611eaf565b602060405180830381865afa158015610f79573d6000803e3d6000fd5b505050506040513d601f19601f82011682018060405250810190610f9d9190612249565b6040518363ffffffff1660e01b8152600401610fba9291906122dc565b600060405180830381600087803b158015610fd457600080fd5b505af1158015610fe8573d6000803e3d6000fd5b505050506112606002858560008054906101000a900473ffffffffffffffffffffffffffffffffffffffff1673ffffffffffffffffffffffffffffffffffffffff1663b223c5ca896040518263ffffffff1660e01b815260040161104c9190611eaf565b602060405180830381865afa158015611069573d6000803e3d6000fd5b505050506040513d601f19601f8201168201806040525081019061108d9190612249565b60008054906101000a900473ffffffffffffffffffffffffffffffffffffffff1673ffffffffffffffffffffffffffffffffffffffff1663b223c5ca896040518263ffffffff1660e01b81526004016110e69190611eaf565b602060405180830381865afa158015611103573d6000803e3d6000fd5b505050506040513d601f19601f820116820180604052508101906111279190612249565b60008054906101000a900473ffffffffffffffffffffffffffffffffffffffff1673ffffffffffffffffffffffffffffffffffffffff1663b223c5ca8a6040518263ffffffff1660e01b81526004016111809190611eaf565b602060405180830381865afa15801561119d573d6000803e3d6000fd5b505050506040513d601f19601f820116820180604052508101906111c19190612249565b60008054906101000a900473ffffffffffffffffffffffffffffffffffffffff1673ffffffffffffffffffffffffffffffffffffffff1663b223c5ca8c6040518263ffffffff1660e01b815260040161121a9190611eaf565b602060405180830381865afa158015611237573d6000803e3d6000fd5b505050506040513d601f19601f8201168201806040525081019061125b9190612249565b6118dd565b507fb29f8388f7559d30693880e05754c0a9494878abc5ec35405366d4b3ddb7145960405160405180910390a1611780565b60008054906101000a900473ffffffffffffffffffffffffffffffffffffffff1673ffffffffffffffffffffffffffffffffffffffff1663b7760c8f8560008054906101000a900473ffffffffffffffffffffffffffffffffffffffff1673ffffffffffffffffffffffffffffffffffffffff1663b223c5ca886040518263ffffffff1660e01b81526004016113289190611eaf565b602060405180830381865afa158015611345573d6000803e3d6000fd5b505050506040513d601f19601f820116820180604052508101906113699190612249565b6040518363ffffffff1660e01b81526004016113869291906122dc565b600060405180830381600087803b1580156113a057600080fd5b505af11580156113b4573d6000803e3d6000fd5b5050505060008054906101000a900473ffffffffffffffffffffffffffffffffffffffff1673ffffffffffffffffffffffffffffffffffffffff1663b7760c8f8460008054906101000a900473ffffffffffffffffffffffffffffffffffffffff1673ffffffffffffffffffffffffffffffffffffffff1663b223c5ca886040518263ffffffff1660e01b815260040161144e9190611eaf565b602060405180830381865afa15801561146b573d6000803e3d6000fd5b505050506040513d601f19601f8201168201806040525081019061148f9190612249565b6040518363ffffffff1660e01b81526004016114ac9291906122dc565b600060405180830381600087803b1580156114c657600080fd5b505af11580156114da573d6000803e3d6000fd5b505050506117526001858560008054906101000a900473ffffffffffffffffffffffffffffffffffffffff1673ffffffffffffffffffffffffffffffffffffffff1663b223c5ca896040518263ffffffff1660e01b815260040161153e9190611eaf565b602060405180830381865afa15801561155b573d6000803e3d6000fd5b505050506040513d601f19601f8201168201806040525081019061157f9190612249565b60008054906101000a900473ffffffffffffffffffffffffffffffffffffffff1673ffffffffffffffffffffffffffffffffffffffff1663b223c5ca896040518263ffffffff1660e01b81526004016115d89190611eaf565b602060405180830381865afa1580156115f5573d6000803e3d6000fd5b505050506040513d601f19601f820116820180604052508101906116199190612249565b60008054906101000a900473ffffffffffffffffffffffffffffffffffffffff1673ffffffffffffffffffffffffffffffffffffffff1663b223c5ca8b6040518263ffffffff1660e01b81526004016116729190611eaf565b602060405180830381865afa15801561168f573d6000803e3d6000fd5b505050506040513d601f19601f820116820180604052508101906116b39190612249565b60008054906101000a900473ffffffffffffffffffffffffffffffffffffffff1673ffffffffffffffffffffffffffffffffffffffff1663b223c5ca8b6040518263ffffffff1660e01b815260040161170c9190611eaf565b602060405180830381865afa158015611729573d6000803e3d6000fd5b505050506040513d601f19601f8201168201806040525081019061174d9190612249565b6118dd565b507f2f176888e32b094fb01f9fee66feb424edb494ff752d5f3fd6288f5c2d399a6560405160405180910390a15b5b50505050565b600060036000838152602001908152602001600020600301549050919050565b600060036000838152602001908152602001600020600201549050919050565b6000600160008373ffffffffffffffffffffffffffffffffffffffff1673ffffffffffffffffffffffffffffffffffffffff16815260200190815260200160002060009054906101000a900473ffffffffffffffffffffffffffffffffffffffff169050919050565b60006003600083815260200190815260200160002060040160009054906101000a900473ffffffffffffffffffffffffffffffffffffffff169050919050565b60006003600083815260200190815260200160002060060160009054906101000a900473ffffffffffffffffffffffffffffffffffffffff169050919050565b60006003600083815260200190815260200160002060010160009054906101000a900460ff169050919050565b600080600260008154809291906118f390612334565b91905055905060006040518061010001604052808381526020018b60028111156119205761191f61201d565b5b81526020018a81526020018981526020018873ffffffffffffffffffffffffffffffffffffffff1681526020018773ffffffffffffffffffffffffffffffffffffffff1681526020018673ffffffffffffffffffffffffffffffffffffffff1681526020018573ffffffffffffffffffffffffffffffffffffffff16815250905080600360008481526020019081526020016000206000820151816000015560208201518160010160006101000a81548160ff021916908360028111156119ea576119e961201d565b5b0217905550604082015181600201556060820151816003015560808201518160040160006101000a81548173ffffffffffffffffffffffffffffffffffffffff021916908373ffffffffffffffffffffffffffffffffffffffff16021790555060a08201518160050160006101000a81548173ffffffffffffffffffffffffffffffffffffffff021916908373ffffffffffffffffffffffffffffffffffffffff16021790555060c08201518160060160006101000a81548173ffffffffffffffffffffffffffffffffffffffff021916908373ffffffffffffffffffffffffffffffffffffffff16021790555060e08201518160070160006101000a81548173ffffffffffffffffffffffffffffffffffffffff021916908373ffffffffffffffffffffffffffffffffffffffff1602179055509050508192505050979650505050505050565b60036020528060005260406000206000915090508060000154908060010160009054906101000a900460ff16908060020154908060030154908060040160009054906101000a900473ffffffffffffffffffffffffffffffffffffffff16908060050160009054906101000a900473ffffffffffffffffffffffffffffffffffffffff16908060060160009054906101000a900473ffffffffffffffffffffffffffffffffffffffff16908060070160009054906101000a900473ffffffffffffffffffffffffffffffffffffffff16905088565b60006003600083815260200190815260200160002060050160009054906101000a900473ffffffffffffffffffffffffffffffffffffffff169050919050565b60008054906101000a900473ffffffffffffffffffffffffffffffffffffffff1673ffffffffffffffffffffffffffffffffffffffff1663b223c5ca836040518263ffffffff1660e01b8152600401611ca09190611eaf565b602060405180830381865afa158015611cbd573d6000803e3d6000fd5b505050506040513d601f19601f82011682018060405250810190611ce19190612249565b73ffffffffffffffffffffffffffffffffffffffff163373ffffffffffffffffffffffffffffffffffffffff1614611d4e576040517f08c379a0000000000000000000000000000000000000000000000000000000008152600401611d45906123ff565b60405180910390fd5b80600160008060009054906101000a900473ffffffffffffffffffffffffffffffffffffffff1673ffffffffffffffffffffffffffffffffffffffff1663b223c5ca866040518263ffffffff1660e01b8152600401611dad9190611eaf565b602060405180830381865afa158015611dca573d6000803e3d6000fd5b505050506040513d601f19601f82011682018060405250810190611dee9190612249565b73ffffffffffffffffffffffffffffffffffffffff1673ffffffffffffffffffffffffffffffffffffffff16815260200190815260200160002060006101000a81548173ffffffffffffffffffffffffffffffffffffffff021916908373ffffffffffffffffffffffffffffffffffffffff1602179055507fd2882f87774d69f56ec6b5e569c49a26e273ca086a199d1eb57d9e0545827ea260405160405180910390a15050565b6000819050919050565b611ea981611e96565b82525050565b6000602082019050611ec46000830184611ea0565b92915050565b600080fd5b611ed881611e96565b8114611ee357600080fd5b50565b600081359050611ef581611ecf565b92915050565b60008060408385031215611f1257611f11611eca565b5b6000611f2085828601611ee6565b9250506020611f3185828601611ee6565b9150509250929050565b600060208284031215611f5157611f50611eca565b5b6000611f5f84828501611ee6565b91505092915050565b600073ffffffffffffffffffffffffffffffffffffffff82169050919050565b6000611f9382611f68565b9050919050565b611fa381611f88565b8114611fae57600080fd5b50565b600081359050611fc081611f9a565b92915050565b600060208284031215611fdc57611fdb611eca565b5b6000611fea84828501611fb1565b91505092915050565b611ffc81611f88565b82525050565b60006020820190506120176000830184611ff3565b92915050565b7f4e487b7100000000000000000000000000000000000000000000000000000000600052602160045260246000fd5b6003811061205d5761205c61201d565b5b50565b600081905061206e8261204c565b919050565b600061207e82612060565b9050919050565b61208e81612073565b82525050565b60006020820190506120a96000830184612085565b92915050565b600381106120bc57600080fd5b50565b6000813590506120ce816120af565b92915050565b600080600080600080600060e0888a0312156120f3576120f2611eca565b5b60006121018a828b016120bf565b97505060206121128a828b01611ee6565b96505060406121238a828b01611ee6565b95505060606121348a828b01611fb1565b94505060806121458a828b01611fb1565b93505060a06121568a828b01611fb1565b92505060c06121678a828b01611fb1565b91505092959891949750929550565b60006101008201905061218c600083018b611ea0565b612199602083018a612085565b6121a66040830189611ea0565b6121b36060830188611ea0565b6121c06080830187611ff3565b6121cd60a0830186611ff3565b6121da60c0830185611ff3565b6121e760e0830184611ff3565b9998505050505050505050565b6000806040838503121561220b5761220a611eca565b5b600061221985828601611ee6565b925050602061222a85828601611fb1565b9150509250929050565b60008151905061224381611f9a565b92915050565b60006020828403121561225f5761225e611eca565b5b600061226d84828501612234565b91505092915050565b600060ff82169050919050565b61228c81612276565b811461229757600080fd5b50565b6000815190506122a981612283565b92915050565b6000602082840312156122c5576122c4611eca565b5b60006122d38482850161229a565b91505092915050565b60006040820190506122f16000830185611ea0565b6122fe6020830184611ff3565b9392505050565b7f4e487b7100000000000000000000000000000000000000000000000000000000600052601160045260246000fd5b600061233f82611e96565b91507fffffffffffffffffffffffffffffffffffffffffffffffffffffffffffffffff820361237157612370612305565b5b600182019050919050565b600082825260208201905092915050565b7f6f6e6c792070726576206f6e7765722063616e20616c6c6f7720616e20656e6560008201527f6d79000000000000000000000000000000000000000000000000000000000000602082015250565b60006123e960228361237c565b91506123f48261238d565b604082019050919050565b60006020820190508181036000830152612418816123dc565b905091905056fea26469706673582212201bc561b7e081c08b1534fe4265decfccd111aa177a018e5ef2bdf972f5f4a3a564736f6c63430008130033",
  "immutableReferences": {},
  "source": "pragma solidity ^0.8.19;\nimport \"./Dice.sol\";\n\n/*\n1. First create dice using the Dice contract\n2. Transfer both dice to this contract using the contract's address\n3. Use setBattlePair from each player's account to decide enemy\n4. Use the battle function to roll, stop rolling and then compare the numbers\n5. The player with the higher number gets BOTH dice\n6. If there is a tie, return the dice to their previous owner\n*/\n\n\ncontract DiceBattle {\n    Dice diceContract;\n    mapping(address => address) battle_pair;\n\n    enum battleState { tie, win, lose}\n\n    struct battle {\n        uint256 battleId;\n        battleState state;\n        uint256 diceId_1;\n        uint256 diceId_2;\n        address diceOwner1;\n        address diceOwner2;\n        address winner;\n        address looser;\n    }\n    uint256 public numBattles = 0;\n    mapping(uint256 => battle) public battles;\n\n    event battletie();\n    event battlewin();\n    event battlelose();\n    event add_enemy();\n\n    constructor(Dice diceAddress) public {\n        diceContract = diceAddress;\n    }\n\n    //function to record a new battle, and add to 'battles' map.\n    function addBattle(\n        battleState state,\n        uint256 diceId_1,\n        uint256 diceId_2,\n        address diceOwner1,\n        address diceOwner2,\n        address winner,\n        address looser\n    ) public returns(uint256) {\n\n        uint256 newBattleId = numBattles++;\n        //new battle object\n        battle memory newBattle = battle(\n            newBattleId,\n            state,\n            diceId_1,\n            diceId_2,\n            diceOwner1,\n            diceOwner2,\n            winner,\n            looser\n        );\n        \n        battles[newBattleId] = newBattle; //commit to state variable\n        return newBattleId;   //return new battleId\n    }\n\n    function setBattlePair(uint256 myDice, address enemy) public {\n        // Require that only prev owner can allow an enemy\n        // Each player can only select one enemy\n        require(msg.sender == diceContract.getDicePrevOwner(myDice), \"only prev onwer can allow an enemy\");\n        battle_pair[diceContract.getDicePrevOwner(myDice)] = enemy; \n        \n        emit add_enemy();\n    }\n\n    function Battle(uint256 myDice, uint256 enemyDice) public {\n        // Require that battle_pairs align, ie each player has accepted a battle with the other\n        require(battle_pair[diceContract.getDicePrevOwner(myDice)] == diceContract.getDicePrevOwner(enemyDice));\n        require(battle_pair[diceContract.getDicePrevOwner(enemyDice)] == diceContract.getDicePrevOwner(myDice));\n\n        diceContract.roll(myDice);\n        diceContract.roll(enemyDice);\n        diceContract.stopRoll(myDice);\n        diceContract.stopRoll(enemyDice);\n\n        uint256 myNum = diceContract.getDiceNumber(myDice);\n        uint256 enemyNum = diceContract.getDiceNumber(enemyDice);\n\n        if (myNum == enemyNum)\n        {\n            diceContract.transfer(myDice, diceContract.getDicePrevOwner(myDice));\n            diceContract.transfer(enemyDice, diceContract.getDicePrevOwner(enemyDice));\n            addBattle(battleState.tie, myDice, enemyDice, diceContract.getDicePrevOwner(myDice), diceContract.getDicePrevOwner(enemyDice), address(0), address(0));\n            emit battletie();\n        }\n        else if (myNum < enemyNum)\n        {\n            diceContract.transfer(myDice, diceContract.getDicePrevOwner(enemyDice));\n            diceContract.transfer(enemyDice, diceContract.getDicePrevOwner(enemyDice));\n            addBattle(battleState.lose, myDice, enemyDice, diceContract.getDicePrevOwner(myDice), diceContract.getDicePrevOwner(enemyDice), diceContract.getDicePrevOwner(enemyDice), diceContract.getDicePrevOwner(myDice));\n            emit battlelose();\n        }\n        else\n        {\n            diceContract.transfer(myDice, diceContract.getDicePrevOwner(myDice));\n            diceContract.transfer(enemyDice, diceContract.getDicePrevOwner(myDice));\n            addBattle(battleState.win, myDice, enemyDice, diceContract.getDicePrevOwner(myDice), diceContract.getDicePrevOwner(enemyDice), diceContract.getDicePrevOwner(myDice), diceContract.getDicePrevOwner(enemyDice));\n            emit battlewin();\n        }\n        // Run battle\n\n    }\n\n    //Add relevant getters and setters\n    function getBattlePair(address myAddress) public view returns(address)\n    {\n        return battle_pair[myAddress];\n    }\n    \n    function getWinner(uint256 battleId) public view returns (address) \n    {\n        return battles[battleId].winner;\n    }\n\n    function getState(uint256 battleId) public view returns (battleState) \n    {\n        return battles[battleId].state;\n    }\n\n    function getDiceId1(uint256 battleId) public view returns (uint256) \n    {\n        return battles[battleId].diceId_1;\n    }\n\n    function getDiceId2(uint256 battleId) public view returns (uint256) \n    {\n        return battles[battleId].diceId_2;\n    }\n\n    function getAddress1(uint256 battleId) public view returns (address) \n    {\n        return battles[battleId].diceOwner1;\n    }\n\n    function getAddress2(uint256 battleId) public view returns (address) \n    {\n        return battles[battleId].diceOwner2;\n    }\n}",
  "sourcePath": "/Users/wurunpu/Downloads/semester 1/FT5004/lab3/contracts/DiceBattle.sol",
  "compiler": {
    "name": "solc",
    "version": "0.8.19+commit.7dd6d404.Emscripten.clang"
  },
  "schemaVersion": "3.4.13",
  "updatedAt": "2023-04-04T15:10:11.400Z",
  "networkType": "ethereum",
  "devdoc": {
    "kind": "dev",
    "methods": {},
    "version": 1
  },
  "userdoc": {
    "kind": "user",
    "methods": {},
    "version": 1
  }
}