{
  "contractName": "Module",
  "abi": [
    {
      "inputs": [
        {
          "internalType": "uint256",
          "name": "",
          "type": "uint256"
        }
      ],
      "name": "modules",
      "outputs": [
        {
          "internalType": "uint256",
          "name": "moduleId",
          "type": "uint256"
        },
        {
          "internalType": "uint256",
          "name": "studentNumber",
          "type": "uint256"
        },
        {
          "internalType": "uint256",
          "name": "feedbackCount",
          "type": "uint256"
        },
        {
          "internalType": "string",
          "name": "code",
          "type": "string"
        },
        {
          "internalType": "string",
          "name": "intro",
          "type": "string"
        },
        {
          "internalType": "address",
          "name": "school",
          "type": "address"
        },
        {
          "internalType": "address",
          "name": "teacher",
          "type": "address"
        },
        {
          "internalType": "uint256",
          "name": "teacherId",
          "type": "uint256"
        }
      ],
      "stateMutability": "view",
      "type": "function",
      "constant": true
    },
    {
      "inputs": [],
      "name": "numModules",
      "outputs": [
        {
          "internalType": "uint256",
          "name": "",
          "type": "uint256"
        }
      ],
      "stateMutability": "view",
      "type": "function",
      "constant": true
    },
    {
      "inputs": [
        {
          "internalType": "uint256",
          "name": "studentNumber",
          "type": "uint256"
        },
        {
          "internalType": "string",
          "name": "code",
          "type": "string"
        },
        {
          "internalType": "string",
          "name": "intro",
          "type": "string"
        },
        {
          "internalType": "address",
          "name": "teacher",
          "type": "address"
        },
        {
          "internalType": "uint256",
          "name": "teacherId",
          "type": "uint256"
        }
      ],
      "name": "add",
      "outputs": [
        {
          "internalType": "uint256",
          "name": "",
          "type": "uint256"
        }
      ],
      "stateMutability": "nonpayable",
      "type": "function"
    },
    {
      "inputs": [
        {
          "internalType": "uint256",
          "name": "moduleId",
          "type": "uint256"
        }
      ],
      "name": "destroyModule",
      "outputs": [],
      "stateMutability": "nonpayable",
      "type": "function"
    },
    {
      "inputs": [
        {
          "internalType": "uint256",
          "name": "moduleId",
          "type": "uint256"
        }
      ],
      "name": "getModuleCode",
      "outputs": [
        {
          "internalType": "string",
          "name": "",
          "type": "string"
        }
      ],
      "stateMutability": "view",
      "type": "function",
      "constant": true
    },
    {
      "inputs": [
        {
          "internalType": "uint256",
          "name": "moduleId",
          "type": "uint256"
        }
      ],
      "name": "getModuleIntro",
      "outputs": [
        {
          "internalType": "string",
          "name": "",
          "type": "string"
        }
      ],
      "stateMutability": "view",
      "type": "function",
      "constant": true
    },
    {
      "inputs": [
        {
          "internalType": "uint256",
          "name": "moduleId",
          "type": "uint256"
        }
      ],
      "name": "getModuleStudenNumber",
      "outputs": [
        {
          "internalType": "uint256",
          "name": "",
          "type": "uint256"
        }
      ],
      "stateMutability": "view",
      "type": "function",
      "constant": true
    },
    {
      "inputs": [
        {
          "internalType": "uint256",
          "name": "moduleId",
          "type": "uint256"
        }
      ],
      "name": "getModuleTeacher",
      "outputs": [
        {
          "internalType": "uint256",
          "name": "",
          "type": "uint256"
        }
      ],
      "stateMutability": "view",
      "type": "function",
      "constant": true
    },
    {
      "inputs": [
        {
          "internalType": "uint256",
          "name": "moduleId",
          "type": "uint256"
        },
        {
          "internalType": "string[]",
          "name": "_feedback",
          "type": "string[]"
        }
      ],
      "name": "setModuleStudentFeedback",
      "outputs": [],
      "stateMutability": "nonpayable",
      "type": "function"
    },
    {
      "inputs": [
        {
          "internalType": "uint256",
          "name": "moduleId",
          "type": "uint256"
        }
      ],
      "name": "getModuleFeedbackCount",
      "outputs": [
        {
          "internalType": "uint256",
          "name": "",
          "type": "uint256"
        }
      ],
      "stateMutability": "view",
      "type": "function",
      "constant": true
    },
    {
      "inputs": [
        {
          "internalType": "uint256",
          "name": "moduleId",
          "type": "uint256"
        },
        {
          "internalType": "string",
          "name": "_feedback",
          "type": "string"
        }
      ],
      "name": "putModuleStudentFeedback",
      "outputs": [],
      "stateMutability": "nonpayable",
      "type": "function"
    },
    {
      "inputs": [
        {
          "internalType": "uint256",
          "name": "moduleId",
          "type": "uint256"
        },
        {
          "internalType": "uint256",
          "name": "_feedbackId",
          "type": "uint256"
        }
      ],
      "name": "getModuleStudentFeedback",
      "outputs": [
        {
          "internalType": "string",
          "name": "",
          "type": "string"
        }
      ],
      "stateMutability": "view",
      "type": "function",
      "constant": true
    },
    {
      "inputs": [
        {
          "internalType": "uint256",
          "name": "moduleId",
          "type": "uint256"
        }
      ],
      "name": "getModuleStudentFeedback",
      "outputs": [
        {
          "internalType": "string[]",
          "name": "",
          "type": "string[]"
        }
      ],
      "stateMutability": "view",
      "type": "function",
      "constant": true
    }
  ],
  "bytecode": "0x60806040526000805534801561001457600080fd5b50611981806100246000396000f3fe608060405234801561001057600080fd5b50600436106100cf5760003560e01c80636b21febe1161008c57806382f2d9441161006657806382f2d944146102635780638a441bba1461027f5780638ac341c6146102af578063ab1d65fc146102cd576100cf565b80636b21febe146101e05780637464d928146101fc57806381b2248a1461022c576100cf565b8063011a5b04146100d45780631f959bdf1461010457806322f76f5f14610120578063579c02fc14610150578063593ba1df146101805780635b26d34a146101b0575b600080fd5b6100ee60048036038101906100e99190610e69565b6102fd565b6040516100fb9190610f39565b60405180910390f35b61011e60048036038101906101199190611176565b6103d2565b005b61013a600480360381019061013591906111d2565b610411565b604051610147919061130b565b60405180910390f35b61016a6004803603810190610165919061138b565b610510565b604051610177919061144d565b60405180910390f35b61019a600480360381019061019591906111d2565b61072c565b6040516101a7919061144d565b60405180910390f35b6101ca60048036038101906101c591906111d2565b61075c565b6040516101d79190610f39565b60405180910390f35b6101fa60048036038101906101f59190611468565b610814565b005b610216600480360381019061021191906111d2565b6108b6565b604051610223919061144d565b60405180910390f35b610246600480360381019061024191906111d2565b6108e6565b60405161025a9897969594939291906114d3565b60405180910390f35b61027d600480360381019061027891906111d2565b610a7e565b005b610299600480360381019061029491906111d2565b610c36565b6040516102a6919061144d565b60405180910390f35b6102b7610c66565b6040516102c4919061144d565b60405180910390f35b6102e760048036038101906102e291906111d2565b610c6c565b6040516102f49190610f39565b60405180910390f35b606082600054811061030e57600080fd5b6001600085815260200190815260200160002060080183815481106103365761033561155f565b5b90600052602060002001805461034b906115bd565b80601f0160208091040260200160405190810160405280929190818152602001828054610377906115bd565b80156103c45780601f10610399576101008083540402835291602001916103c4565b820191906000526020600020905b8154815290600101906020018083116103a757829003601f168201915b505050505091505092915050565b8160005481106103e157600080fd5b8160016000858152602001908152602001600020600801908051906020019061040b929190610d24565b50505050565b606081600054811061042257600080fd5b60016000848152602001908152602001600020600801805480602002602001604051908101604052809291908181526020016000905b82821015610504578382906000526020600020018054610477906115bd565b80601f01602080910402602001604051908101604052809291908181526020018280546104a3906115bd565b80156104f05780601f106104c5576101008083540402835291602001916104f0565b820191906000526020600020905b8154815290600101906020018083116104d357829003601f168201915b505050505081526020019060010190610458565b50505050915050919050565b600080861161051e57600080fd5b60008667ffffffffffffffff81111561053a57610539610f60565b5b60405190808252806020026020018201604052801561056d57816020015b60608152602001906001900390816105585790505b509050600060405180610120016040528060008152602001898152602001600081526020018881526020018781526020013373ffffffffffffffffffffffffffffffffffffffff1681526020018673ffffffffffffffffffffffffffffffffffffffff16815260200185815260200183815250905060008060008154809291906105f69061161d565b919050559050808260000181815250508160016000838152602001908152602001600020600082015181600001556020820151816001015560408201518160020155606082015181600301908161064d9190611811565b5060808201518160040190816106639190611811565b5060a08201518160050160006101000a81548173ffffffffffffffffffffffffffffffffffffffff021916908373ffffffffffffffffffffffffffffffffffffffff16021790555060c08201518160060160006101000a81548173ffffffffffffffffffffffffffffffffffffffff021916908373ffffffffffffffffffffffffffffffffffffffff16021790555060e08201518160070155610100820151816008019080519060200190610719929190610d24565b5090505080935050505095945050505050565b600081600054811061073d57600080fd5b6001600084815260200190815260200160002060070154915050919050565b606081600054811061076d57600080fd5b60016000848152602001908152602001600020600301805461078e906115bd565b80601f01602080910402602001604051908101604052809291908181526020018280546107ba906115bd565b80156108075780601f106107dc57610100808354040283529160200191610807565b820191906000526020600020905b8154815290600101906020018083116107ea57829003601f168201915b5050505050915050919050565b81600054811061082357600080fd5b6001806000858152602001908152602001600020600201600082825461084991906118e3565b9250508190555081600160008581526020019081526020016000206008016001806000878152602001908152602001600020600201546108899190611917565b8154811061089a5761089961155f565b5b9060005260206000200190816108b09190611811565b50505050565b60008160005481106108c757600080fd5b6001600084815260200190815260200160002060020154915050919050565b600160205280600052604060002060009150905080600001549080600101549080600201549080600301805461091b906115bd565b80601f0160208091040260200160405190810160405280929190818152602001828054610947906115bd565b80156109945780601f1061096957610100808354040283529160200191610994565b820191906000526020600020905b81548152906001019060200180831161097757829003601f168201915b5050505050908060040180546109a9906115bd565b80601f01602080910402602001604051908101604052809291908181526020018280546109d5906115bd565b8015610a225780601f106109f757610100808354040283529160200191610a22565b820191906000526020600020905b815481529060010190602001808311610a0557829003601f168201915b5050505050908060050160009054906101000a900473ffffffffffffffffffffffffffffffffffffffff16908060060160009054906101000a900473ffffffffffffffffffffffffffffffffffffffff16908060070154905088565b803373ffffffffffffffffffffffffffffffffffffffff166001600083815260200190815260200160002060050160009054906101000a900473ffffffffffffffffffffffffffffffffffffffff1673ffffffffffffffffffffffffffffffffffffffff161480610b5057503373ffffffffffffffffffffffffffffffffffffffff166001600083815260200190815260200160002060060160009054906101000a900473ffffffffffffffffffffffffffffffffffffffff1673ffffffffffffffffffffffffffffffffffffffff16145b610b5957600080fd5b816000548110610b6857600080fd5b6001600084815260200190815260200160002060008082016000905560018201600090556002820160009055600382016000610ba49190610d7d565b600482016000610bb49190610d7d565b6005820160006101000a81549073ffffffffffffffffffffffffffffffffffffffff02191690556006820160006101000a81549073ffffffffffffffffffffffffffffffffffffffff02191690556007820160009055600882016000610c1a9190610dbd565b50506001600054610c2b9190611917565b600081905550505050565b6000816000548110610c4757600080fd5b6001600084815260200190815260200160002060010154915050919050565b60005481565b6060816000548110610c7d57600080fd5b600160008481526020019081526020016000206004018054610c9e906115bd565b80601f0160208091040260200160405190810160405280929190818152602001828054610cca906115bd565b8015610d175780601f10610cec57610100808354040283529160200191610d17565b820191906000526020600020905b815481529060010190602001808311610cfa57829003601f168201915b5050505050915050919050565b828054828255906000526020600020908101928215610d6c579160200282015b82811115610d6b578251829081610d5b9190611811565b5091602001919060010190610d44565b5b509050610d799190610dde565b5090565b508054610d89906115bd565b6000825580601f10610d9b5750610dba565b601f016020900490600052602060002090810190610db99190610e02565b5b50565b5080546000825590600052602060002090810190610ddb9190610dde565b50565b5b80821115610dfe5760008181610df59190610d7d565b50600101610ddf565b5090565b5b80821115610e1b576000816000905550600101610e03565b5090565b6000604051905090565b600080fd5b600080fd5b6000819050919050565b610e4681610e33565b8114610e5157600080fd5b50565b600081359050610e6381610e3d565b92915050565b60008060408385031215610e8057610e7f610e29565b5b6000610e8e85828601610e54565b9250506020610e9f85828601610e54565b9150509250929050565b600081519050919050565b600082825260208201905092915050565b60005b83811015610ee3578082015181840152602081019050610ec8565b60008484015250505050565b6000601f19601f8301169050919050565b6000610f0b82610ea9565b610f158185610eb4565b9350610f25818560208601610ec5565b610f2e81610eef565b840191505092915050565b60006020820190508181036000830152610f538184610f00565b905092915050565b600080fd5b7f4e487b7100000000000000000000000000000000000000000000000000000000600052604160045260246000fd5b610f9882610eef565b810181811067ffffffffffffffff82111715610fb757610fb6610f60565b5b80604052505050565b6000610fca610e1f565b9050610fd68282610f8f565b919050565b600067ffffffffffffffff821115610ff657610ff5610f60565b5b602082029050602081019050919050565b600080fd5b600080fd5b600067ffffffffffffffff82111561102c5761102b610f60565b5b61103582610eef565b9050602081019050919050565b82818337600083830152505050565b600061106461105f84611011565b610fc0565b9050828152602081018484840111156110805761107f61100c565b5b61108b848285611042565b509392505050565b600082601f8301126110a8576110a7610f5b565b5b81356110b8848260208601611051565b91505092915050565b60006110d46110cf84610fdb565b610fc0565b905080838252602082019050602084028301858111156110f7576110f6611007565b5b835b8181101561113e57803567ffffffffffffffff81111561111c5761111b610f5b565b5b8086016111298982611093565b855260208501945050506020810190506110f9565b5050509392505050565b600082601f83011261115d5761115c610f5b565b5b813561116d8482602086016110c1565b91505092915050565b6000806040838503121561118d5761118c610e29565b5b600061119b85828601610e54565b925050602083013567ffffffffffffffff8111156111bc576111bb610e2e565b5b6111c885828601611148565b9150509250929050565b6000602082840312156111e8576111e7610e29565b5b60006111f684828501610e54565b91505092915050565b600081519050919050565b600082825260208201905092915050565b6000819050602082019050919050565b600082825260208201905092915050565b600061124782610ea9565b611251818561122b565b9350611261818560208601610ec5565b61126a81610eef565b840191505092915050565b6000611281838361123c565b905092915050565b6000602082019050919050565b60006112a1826111ff565b6112ab818561120a565b9350836020820285016112bd8561121b565b8060005b858110156112f957848403895281516112da8582611275565b94506112e583611289565b925060208a019950506001810190506112c1565b50829750879550505050505092915050565b600060208201905081810360008301526113258184611296565b905092915050565b600073ffffffffffffffffffffffffffffffffffffffff82169050919050565b60006113588261132d565b9050919050565b6113688161134d565b811461137357600080fd5b50565b6000813590506113858161135f565b92915050565b600080600080600060a086880312156113a7576113a6610e29565b5b60006113b588828901610e54565b955050602086013567ffffffffffffffff8111156113d6576113d5610e2e565b5b6113e288828901611093565b945050604086013567ffffffffffffffff81111561140357611402610e2e565b5b61140f88828901611093565b935050606061142088828901611376565b925050608061143188828901610e54565b9150509295509295909350565b61144781610e33565b82525050565b6000602082019050611462600083018461143e565b92915050565b6000806040838503121561147f5761147e610e29565b5b600061148d85828601610e54565b925050602083013567ffffffffffffffff8111156114ae576114ad610e2e565b5b6114ba85828601611093565b9150509250929050565b6114cd8161134d565b82525050565b6000610100820190506114e9600083018b61143e565b6114f6602083018a61143e565b611503604083018961143e565b81810360608301526115158188610f00565b905081810360808301526115298187610f00565b905061153860a08301866114c4565b61154560c08301856114c4565b61155260e083018461143e565b9998505050505050505050565b7f4e487b7100000000000000000000000000000000000000000000000000000000600052603260045260246000fd5b7f4e487b7100000000000000000000000000000000000000000000000000000000600052602260045260246000fd5b600060028204905060018216806115d557607f821691505b6020821081036115e8576115e761158e565b5b50919050565b7f4e487b7100000000000000000000000000000000000000000000000000000000600052601160045260246000fd5b600061162882610e33565b91507fffffffffffffffffffffffffffffffffffffffffffffffffffffffffffffffff820361165a576116596115ee565b5b600182019050919050565b60008190508160005260206000209050919050565b60006020601f8301049050919050565b600082821b905092915050565b6000600883026116c77fffffffffffffffffffffffffffffffffffffffffffffffffffffffffffffffff8261168a565b6116d1868361168a565b95508019841693508086168417925050509392505050565b6000819050919050565b600061170e61170961170484610e33565b6116e9565b610e33565b9050919050565b6000819050919050565b611728836116f3565b61173c61173482611715565b848454611697565b825550505050565b600090565b611751611744565b61175c81848461171f565b505050565b5b8181101561178057611775600082611749565b600181019050611762565b5050565b601f8211156117c55761179681611665565b61179f8461167a565b810160208510156117ae578190505b6117c26117ba8561167a565b830182611761565b50505b505050565b600082821c905092915050565b60006117e8600019846008026117ca565b1980831691505092915050565b600061180183836117d7565b9150826002028217905092915050565b61181a82610ea9565b67ffffffffffffffff81111561183357611832610f60565b5b61183d82546115bd565b611848828285611784565b600060209050601f83116001811461187b5760008415611869578287015190505b61187385826117f5565b8655506118db565b601f19841661188986611665565b60005b828110156118b15784890151825560018201915060208501945060208101905061188c565b868310156118ce57848901516118ca601f8916826117d7565b8355505b6001600288020188555050505b505050505050565b60006118ee82610e33565b91506118f983610e33565b9250828201905080821115611911576119106115ee565b5b92915050565b600061192282610e33565b915061192d83610e33565b9250828203905081811115611945576119446115ee565b5b9291505056fea2646970667358221220a7436817c3613672ddcb9d6a4c9055d71c803b98920f45b3739d133d30c7b13864736f6c63430008130033",
  "immutableReferences": {},
  "source": "pragma solidity ^0.8.19;\n\ncontract Module {\n    \n    \n    struct module {\n     \n        uint256 moduleId;\n        uint256 studentNumber;\n        uint256 feedbackCount;\n        string code;\n        string intro;\n        \n        address school;\n        address teacher;\n        uint256 teacherId;\n        string[] studentFeedback;\n    }\n    \n\n    \n    uint256 public numModules = 0;\n    mapping(uint256 => module) public modules;\n\n    //function to create a new module, and add to 'modules' map. \n    function add(\n        uint256 studentNumber,\n        string memory code,\n        string memory intro,\n        address teacher,\n        uint256 teacherId\n    ) public returns(uint256) {\n        require(studentNumber > 0);\n        string[] memory feedback = new string[](studentNumber);\n        //new module object\n        module memory newModule = module(\n            0,   // here we add the initalization of moduleID to 0\n            studentNumber,\n            0,\n            code,\n            intro, \n            msg.sender,  //shcool\n            teacher,\n            teacherId,\n            feedback\n        );\n        \n        uint256 newModuleId = numModules++;\n        newModule.moduleId = newModuleId;\n        modules[newModuleId] = newModule; //commit to state variable\n        return newModuleId;   //return new diceId\n    }\n\n    //modifier to ensure a function is callable only by its owner(shcool or teacher)  \n    modifier ownerOnly(uint256 moduleId) {\n        require((modules[moduleId].school == msg.sender) || (modules[moduleId].teacher == msg.sender));\n        _;\n    }\n    \n    modifier validModuleId(uint256 moduleId) {\n        require(moduleId < numModules);\n        _;\n    }\n\n   \n    //Destroy module\n    function destroyModule(uint256 moduleId) public ownerOnly(moduleId) validModuleId(moduleId) {\n        delete modules[moduleId];\n        numModules = numModules - 1;\n\n    }\n    //get code of this module   \n    function getModuleCode(uint256 moduleId) public view validModuleId(moduleId) returns (string memory) {\n        return modules[moduleId].code;\n    }\n\n    //get intro of this module\n    function getModuleIntro(uint256 moduleId) public view validModuleId(moduleId) returns (string memory) {\n        return modules[moduleId].intro;\n    }\n\n    //get student number of this module\n    function getModuleStudenNumber(uint256 moduleId) public view validModuleId(moduleId) returns (uint256) {\n        return modules[moduleId].studentNumber;\n    }\n    //get teacher of this module\n    function getModuleTeacher(uint256 moduleId) public view validModuleId(moduleId) returns (uint256) {\n        return modules[moduleId].teacherId;\n    }\n    //get student feedback of this module !!!here need attention string[]\n    function getModuleStudentFeedback(uint256 moduleId) public view validModuleId(moduleId) returns (string[] memory) {\n        return modules[moduleId].studentFeedback;\n    }\n\n    //set student feedback of this module !!!here need attention string[]\n    function setModuleStudentFeedback(uint256 moduleId, string[] memory _feedback) public validModuleId(moduleId) {\n        modules[moduleId].studentFeedback = _feedback;\n    }\n    //get feedback Count of this module\n    function getModuleFeedbackCount(uint256 moduleId) public view validModuleId(moduleId) returns (uint256) {\n        return modules[moduleId].feedbackCount;\n    }\n    //put one student feedback of this module !!!here need attention string[]\n    function putModuleStudentFeedback(uint256 moduleId, string memory _feedback) public validModuleId(moduleId) {\n        modules[moduleId].feedbackCount += 1;\n        modules[moduleId].studentFeedback[modules[moduleId].feedbackCount-1] = _feedback;\n    }\n    //get one student feedback of this module !!!here need attention string[]\n    function getModuleStudentFeedback(uint256 moduleId, uint256 _feedbackId) public view validModuleId(moduleId) returns (string memory){\n        return modules[moduleId].studentFeedback[_feedbackId];\n    }\n}\n\n",
  "sourcePath": "/Users/wurunpu/Downloads/semester 1/FT5004/lab3/contracts/Module.sol",
  "compiler": {
    "name": "solc",
    "version": "0.8.19+commit.7dd6d404.Emscripten.clang"
  },
  "schemaVersion": "3.4.13",
  "updatedAt": "2023-04-13T06:48:01.401Z",
  "networkType": "ethereum",
  "devdoc": {
    "kind": "dev",
    "methods": {},
    "version": 1
  },
  "userdoc": {
    "kind": "user",
    "methods": {},
    "version": 1
  }
}