{
  "contractName": "School",
  "abi": [
    {
      "inputs": [
        {
          "internalType": "contract Student",
          "name": "studentAddress",
          "type": "address"
        },
        {
          "internalType": "contract Module",
          "name": "moduleAddress",
          "type": "address"
        },
        {
          "internalType": "contract Teacher",
          "name": "teacherAddress",
          "type": "address"
        }
      ],
      "stateMutability": "nonpayable",
      "type": "constructor"
    },
    {
      "anonymous": false,
      "inputs": [],
      "name": "Feedback2Teacher",
      "type": "event"
    },
    {
      "anonymous": false,
      "inputs": [],
      "name": "FeedbackRecieved",
      "type": "event"
    },
    {
      "anonymous": false,
      "inputs": [],
      "name": "ModuleCreated",
      "type": "event"
    },
    {
      "anonymous": false,
      "inputs": [],
      "name": "StudentCreated",
      "type": "event"
    },
    {
      "anonymous": false,
      "inputs": [],
      "name": "TeacherCreated",
      "type": "event"
    },
    {
      "inputs": [
        {
          "internalType": "uint256",
          "name": "_moduleNumber",
          "type": "uint256"
        },
        {
          "internalType": "string",
          "name": "_info",
          "type": "string"
        },
        {
          "internalType": "address",
          "name": "_school",
          "type": "address"
        },
        {
          "internalType": "address",
          "name": "_self",
          "type": "address"
        },
        {
          "internalType": "uint256[]",
          "name": "_moduleList",
          "type": "uint256[]"
        }
      ],
      "name": "setTeacher",
      "outputs": [],
      "stateMutability": "nonpayable",
      "type": "function"
    },
    {
      "inputs": [
        {
          "internalType": "uint256",
          "name": "_moduleId",
          "type": "uint256"
        }
      ],
      "name": "feedbackToTeacher",
      "outputs": [],
      "stateMutability": "nonpayable",
      "type": "function"
    },
    {
      "inputs": [
        {
          "internalType": "uint256",
          "name": "_moduleNumber",
          "type": "uint256"
        },
        {
          "internalType": "address",
          "name": "_school",
          "type": "address"
        },
        {
          "internalType": "address",
          "name": "_self",
          "type": "address"
        },
        {
          "internalType": "uint256[]",
          "name": "_moduleList",
          "type": "uint256[]"
        }
      ],
      "name": "setStudent",
      "outputs": [],
      "stateMutability": "nonpayable",
      "type": "function"
    },
    {
      "inputs": [
        {
          "internalType": "uint256",
          "name": "_studentId",
          "type": "uint256"
        },
        {
          "internalType": "uint256",
          "name": "_moduleId",
          "type": "uint256"
        },
        {
          "internalType": "string",
          "name": "_context",
          "type": "string"
        },
        {
          "internalType": "string",
          "name": "_code",
          "type": "string"
        }
      ],
      "name": "giveFeedback",
      "outputs": [],
      "stateMutability": "nonpayable",
      "type": "function"
    },
    {
      "inputs": [
        {
          "internalType": "uint256",
          "name": "_studentNumber",
          "type": "uint256"
        },
        {
          "internalType": "string",
          "name": "_code",
          "type": "string"
        },
        {
          "internalType": "string",
          "name": "_intro",
          "type": "string"
        },
        {
          "internalType": "address",
          "name": "_school",
          "type": "address"
        },
        {
          "internalType": "address",
          "name": "_teacher",
          "type": "address"
        },
        {
          "internalType": "uint256",
          "name": "_teacherId",
          "type": "uint256"
        }
      ],
      "name": "setModule",
      "outputs": [],
      "stateMutability": "nonpayable",
      "type": "function"
    },
    {
      "inputs": [
        {
          "internalType": "string",
          "name": "a",
          "type": "string"
        },
        {
          "internalType": "string",
          "name": "b",
          "type": "string"
        }
      ],
      "name": "isEqual",
      "outputs": [
        {
          "internalType": "bool",
          "name": "",
          "type": "bool"
        }
      ],
      "stateMutability": "pure",
      "type": "function",
      "constant": true
    }
  ],
  "bytecode": "0x60806040523480156200001157600080fd5b506040516200200e3803806200200e83398181016040528101906200003791906200024b565b336000806101000a81548173ffffffffffffffffffffffffffffffffffffffff021916908373ffffffffffffffffffffffffffffffffffffffff16021790555082600360006101000a81548173ffffffffffffffffffffffffffffffffffffffff021916908373ffffffffffffffffffffffffffffffffffffffff16021790555081600160006101000a81548173ffffffffffffffffffffffffffffffffffffffff021916908373ffffffffffffffffffffffffffffffffffffffff16021790555080600260006101000a81548173ffffffffffffffffffffffffffffffffffffffff021916908373ffffffffffffffffffffffffffffffffffffffff160217905550505050620002a7565b600080fd5b600073ffffffffffffffffffffffffffffffffffffffff82169050919050565b6000620001758262000148565b9050919050565b6000620001898262000168565b9050919050565b6200019b816200017c565b8114620001a757600080fd5b50565b600081519050620001bb8162000190565b92915050565b6000620001ce8262000168565b9050919050565b620001e081620001c1565b8114620001ec57600080fd5b50565b6000815190506200020081620001d5565b92915050565b6000620002138262000168565b9050919050565b620002258162000206565b81146200023157600080fd5b50565b60008151905062000245816200021a565b92915050565b60008060006060848603121562000267576200026662000143565b5b60006200027786828701620001aa565b93505060206200028a86828701620001ef565b92505060406200029d8682870162000234565b9150509250925092565b611d5780620002b76000396000f3fe608060405234801561001057600080fd5b50600436106100625760003560e01c80632c26ffc914610067578063465c4105146100835780634aaa0f94146100b357806396d69b54146100cf578063adb7aafe146100eb578063d6a492f114610107575b600080fd5b610081600480360381019061007c91906110ce565b610123565b005b61009d60048036038101906100989190611193565b610270565b6040516100aa9190611226565b60405180910390f35b6100cd60048036038101906100c89190611309565b61034d565b005b6100e960048036038101906100e4919061138c565b6105e0565b005b610105600480360381019061010091906113b9565b610932565b005b610121600480360381019061011c919061146c565b610b6c565b005b3373ffffffffffffffffffffffffffffffffffffffff168373ffffffffffffffffffffffffffffffffffffffff1614610191576040517f08c379a000000000000000000000000000000000000000000000000000000000815260040161018890611568565b60405180910390fd5b6000600160009054906101000a900473ffffffffffffffffffffffffffffffffffffffff1673ffffffffffffffffffffffffffffffffffffffff1663579c02fc88888887876040518663ffffffff1660e01b81526004016101f6959493929190611614565b6020604051808303816000875af1158015610215573d6000803e3d6000fd5b505050506040513d601f19601f82011682018060405250810190610239919061168a565b90507f983c08206e625de0ff11f357d6c50a671fdc8711f704b6d0c520c85077dedd2c60405160405180910390a150505050505050565b6000808390506000839050805182511461028f57600092505050610347565b60005b825181101561033f578181815181106102ae576102ad6116b7565b5b602001015160f81c60f81b7effffffffffffffffffffffffffffffffffffffffffffffffffffffffffffff19168382815181106102ee576102ed6116b7565b5b602001015160f81c60f81b7effffffffffffffffffffffffffffffffffffffffffffffffffffffffffffff19161461032c5760009350505050610347565b808061033790611715565b915050610292565b506001925050505b92915050565b3373ffffffffffffffffffffffffffffffffffffffff168373ffffffffffffffffffffffffffffffffffffffff16146103bb576040517f08c379a00000000000000000000000000000000000000000000000000000000081526004016103b2906117a9565b60405180910390fd5b6000600360009054906101000a900473ffffffffffffffffffffffffffffffffffffffff1673ffffffffffffffffffffffffffffffffffffffff16632b8bbbe886856040518363ffffffff1660e01b815260040161041a9291906117c9565b6020604051808303816000875af1158015610439573d6000803e3d6000fd5b505050506040513d601f19601f8201168201806040525081019061045d919061168a565b9050600360009054906101000a900473ffffffffffffffffffffffffffffffffffffffff1673ffffffffffffffffffffffffffffffffffffffff1663782e4be282846040518363ffffffff1660e01b81526004016104bc9291906118b0565b600060405180830381600087803b1580156104d657600080fd5b505af11580156104ea573d6000803e3d6000fd5b505050506004839080600181540180825580915050600190039060005260206000200160009091909190916101000a81548173ffffffffffffffffffffffffffffffffffffffff021916908373ffffffffffffffffffffffffffffffffffffffff16021790555060005b858110156105ac57600060066000848152602001908152602001600020600083815260200190815260200160002060006101000a81548160ff02191690831515021790555080806105a490611715565b915050610554565b507ff4a293392ae5d43605d13ea2c11eb6997003abe2bf3a40a4fc4a0600013cf46860405160405180910390a15050505050565b3373ffffffffffffffffffffffffffffffffffffffff1660008054906101000a900473ffffffffffffffffffffffffffffffffffffffff1673ffffffffffffffffffffffffffffffffffffffff161461066e576040517f08c379a000000000000000000000000000000000000000000000000000000000815260040161066590611952565b60405180910390fd5b6000600160009054906101000a900473ffffffffffffffffffffffffffffffffffffffff1673ffffffffffffffffffffffffffffffffffffffff1663593ba1df836040518263ffffffff1660e01b81526004016106cb9190611972565b602060405180830381865afa1580156106e8573d6000803e3d6000fd5b505050506040513d601f19601f8201168201806040525081019061070c919061168a565b905060005b600160009054906101000a900473ffffffffffffffffffffffffffffffffffffffff1673ffffffffffffffffffffffffffffffffffffffff16637464d928846040518263ffffffff1660e01b815260040161076c9190611972565b602060405180830381865afa158015610789573d6000803e3d6000fd5b505050506040513d601f19601f820116820180604052508101906107ad919061168a565b8111610901576000600160009054906101000a900473ffffffffffffffffffffffffffffffffffffffff1673ffffffffffffffffffffffffffffffffffffffff1663011a5b0485846040518363ffffffff1660e01b815260040161081292919061198d565b600060405180830381865afa15801561082f573d6000803e3d6000fd5b505050506040513d6000823e3d601f19601f820116820180604052508101906108589190611a26565b9050600260009054906101000a900473ffffffffffffffffffffffffffffffffffffffff1673ffffffffffffffffffffffffffffffffffffffff1663995ae44c848487856040518563ffffffff1660e01b81526004016108bb9493929190611a6f565b600060405180830381600087803b1580156108d557600080fd5b505af11580156108e9573d6000803e3d6000fd5b505050505080806108f990611715565b915050610711565b507fd48ba52a2c4a4205ad165c84769c270853a3d1506ed8204055d27af5562786c360405160405180910390a15050565b3373ffffffffffffffffffffffffffffffffffffffff168373ffffffffffffffffffffffffffffffffffffffff16146109a0576040517f08c379a0000000000000000000000000000000000000000000000000000000008152600401610997906117a9565b60405180910390fd5b6000600260009054906101000a900473ffffffffffffffffffffffffffffffffffffffff1673ffffffffffffffffffffffffffffffffffffffff1663611bfce68787866040518463ffffffff1660e01b8152600401610a0193929190611abb565b6020604051808303816000875af1158015610a20573d6000803e3d6000fd5b505050506040513d601f19601f82011682018060405250810190610a44919061168a565b9050600260009054906101000a900473ffffffffffffffffffffffffffffffffffffffff1673ffffffffffffffffffffffffffffffffffffffff1663782e4be282846040518363ffffffff1660e01b8152600401610aa39291906118b0565b600060405180830381600087803b158015610abd57600080fd5b505af1158015610ad1573d6000803e3d6000fd5b505050506005839080600181540180825580915050600190039060005260206000200160009091909190916101000a81548173ffffffffffffffffffffffffffffffffffffffff021916908373ffffffffffffffffffffffffffffffffffffffff1602179055507fc4722c07ce2b094f87956cb8de435a42f2743217a9c01b335c384416130ca4ea60405160405180910390a1505050505050565b6000600360009054906101000a900473ffffffffffffffffffffffffffffffffffffffff1673ffffffffffffffffffffffffffffffffffffffff1663e67651ac866040518263ffffffff1660e01b8152600401610bc99190611972565b602060405180830381865afa158015610be6573d6000803e3d6000fd5b505050506040513d601f19601f82011682018060405250810190610c0a9190611b0e565b90503373ffffffffffffffffffffffffffffffffffffffff168173ffffffffffffffffffffffffffffffffffffffff1614610c7a576040517f08c379a0000000000000000000000000000000000000000000000000000000008152600401610c7190611b87565b60405180910390fd5b6000600160009054906101000a900473ffffffffffffffffffffffffffffffffffffffff1673ffffffffffffffffffffffffffffffffffffffff16635b26d34a866040518263ffffffff1660e01b8152600401610cd79190611972565b600060405180830381865afa158015610cf4573d6000803e3d6000fd5b505050506040513d6000823e3d601f19601f82011682018060405250810190610d1d9190611a26565b9050610d298184610270565b610d68576040517f08c379a0000000000000000000000000000000000000000000000000000000008152600401610d5f90611c3f565b60405180910390fd5b6000151560066000888152602001908152602001600020600087815260200190815260200160002060009054906101000a900460ff16151514610de0576040517f08c379a0000000000000000000000000000000000000000000000000000000008152600401610dd790611cd1565b60405180910390fd5b600160009054906101000a900473ffffffffffffffffffffffffffffffffffffffff1673ffffffffffffffffffffffffffffffffffffffff16636b21febe86866040518363ffffffff1660e01b8152600401610e3d929190611cf1565b600060405180830381600087803b158015610e5757600080fd5b505af1158015610e6b573d6000803e3d6000fd5b50505050600160066000888152602001908152602001600020600087815260200190815260200160002060006101000a81548160ff0219169083151502179055507ffd8832d00259f7ca9095e688290dba3858bc3cbdeb30425be54fdde813831ba660405160405180910390a1505050505050565b6000604051905090565b600080fd5b600080fd5b6000819050919050565b610f0781610ef4565b8114610f1257600080fd5b50565b600081359050610f2481610efe565b92915050565b600080fd5b600080fd5b6000601f19601f8301169050919050565b7f4e487b7100000000000000000000000000000000000000000000000000000000600052604160045260246000fd5b610f7d82610f34565b810181811067ffffffffffffffff82111715610f9c57610f9b610f45565b5b80604052505050565b6000610faf610ee0565b9050610fbb8282610f74565b919050565b600067ffffffffffffffff821115610fdb57610fda610f45565b5b610fe482610f34565b9050602081019050919050565b82818337600083830152505050565b600061101361100e84610fc0565b610fa5565b90508281526020810184848401111561102f5761102e610f2f565b5b61103a848285610ff1565b509392505050565b600082601f83011261105757611056610f2a565b5b8135611067848260208601611000565b91505092915050565b600073ffffffffffffffffffffffffffffffffffffffff82169050919050565b600061109b82611070565b9050919050565b6110ab81611090565b81146110b657600080fd5b50565b6000813590506110c8816110a2565b92915050565b60008060008060008060c087890312156110eb576110ea610eea565b5b60006110f989828a01610f15565b965050602087013567ffffffffffffffff81111561111a57611119610eef565b5b61112689828a01611042565b955050604087013567ffffffffffffffff81111561114757611146610eef565b5b61115389828a01611042565b945050606061116489828a016110b9565b935050608061117589828a016110b9565b92505060a061118689828a01610f15565b9150509295509295509295565b600080604083850312156111aa576111a9610eea565b5b600083013567ffffffffffffffff8111156111c8576111c7610eef565b5b6111d485828601611042565b925050602083013567ffffffffffffffff8111156111f5576111f4610eef565b5b61120185828601611042565b9150509250929050565b60008115159050919050565b6112208161120b565b82525050565b600060208201905061123b6000830184611217565b92915050565b600067ffffffffffffffff82111561125c5761125b610f45565b5b602082029050602081019050919050565b600080fd5b600061128561128084611241565b610fa5565b905080838252602082019050602084028301858111156112a8576112a761126d565b5b835b818110156112d157806112bd8882610f15565b8452602084019350506020810190506112aa565b5050509392505050565b600082601f8301126112f0576112ef610f2a565b5b8135611300848260208601611272565b91505092915050565b6000806000806080858703121561132357611322610eea565b5b600061133187828801610f15565b9450506020611342878288016110b9565b9350506040611353878288016110b9565b925050606085013567ffffffffffffffff81111561137457611373610eef565b5b611380878288016112db565b91505092959194509250565b6000602082840312156113a2576113a1610eea565b5b60006113b084828501610f15565b91505092915050565b600080600080600060a086880312156113d5576113d4610eea565b5b60006113e388828901610f15565b955050602086013567ffffffffffffffff81111561140457611403610eef565b5b61141088828901611042565b9450506040611421888289016110b9565b9350506060611432888289016110b9565b925050608086013567ffffffffffffffff81111561145357611452610eef565b5b61145f888289016112db565b9150509295509295909350565b6000806000806080858703121561148657611485610eea565b5b600061149487828801610f15565b94505060206114a587828801610f15565b935050604085013567ffffffffffffffff8111156114c6576114c5610eef565b5b6114d287828801611042565b925050606085013567ffffffffffffffff8111156114f3576114f2610eef565b5b6114ff87828801611042565b91505092959194509250565b600082825260208201905092915050565b7f6f6e6c79207363686f6f6c2063616e20637265617465206d6f64756c65000000600082015250565b6000611552601d8361150b565b915061155d8261151c565b602082019050919050565b6000602082019050818103600083015261158181611545565b9050919050565b61159181610ef4565b82525050565b600081519050919050565b60005b838110156115c05780820151818401526020810190506115a5565b60008484015250505050565b60006115d782611597565b6115e1818561150b565b93506115f18185602086016115a2565b6115fa81610f34565b840191505092915050565b61160e81611090565b82525050565b600060a0820190506116296000830188611588565b818103602083015261163b81876115cc565b9050818103604083015261164f81866115cc565b905061165e6060830185611605565b61166b6080830184611588565b9695505050505050565b60008151905061168481610efe565b92915050565b6000602082840312156116a05761169f610eea565b5b60006116ae84828501611675565b91505092915050565b7f4e487b7100000000000000000000000000000000000000000000000000000000600052603260045260246000fd5b7f4e487b7100000000000000000000000000000000000000000000000000000000600052601160045260246000fd5b600061172082610ef4565b91507fffffffffffffffffffffffffffffffffffffffffffffffffffffffffffffffff8203611752576117516116e6565b5b600182019050919050565b7f6f6e6c79207363686f6f6c2063616e206372656174652073747564656e740000600082015250565b6000611793601e8361150b565b915061179e8261175d565b602082019050919050565b600060208201905081810360008301526117c281611786565b9050919050565b60006040820190506117de6000830185611588565b6117eb6020830184611605565b9392505050565b600081519050919050565b600082825260208201905092915050565b6000819050602082019050919050565b61182781610ef4565b82525050565b6000611839838361181e565b60208301905092915050565b6000602082019050919050565b600061185d826117f2565b61186781856117fd565b93506118728361180e565b8060005b838110156118a357815161188a888261182d565b975061189583611845565b925050600181019050611876565b5085935050505092915050565b60006040820190506118c56000830185611588565b81810360208301526118d78184611852565b90509392505050565b7f6f6e6c79207363686f6f6c2063616e2073656e6420666565646261636b20746f60008201527f2074656163686572000000000000000000000000000000000000000000000000602082015250565b600061193c60288361150b565b9150611947826118e0565b604082019050919050565b6000602082019050818103600083015261196b8161192f565b9050919050565b60006020820190506119876000830184611588565b92915050565b60006040820190506119a26000830185611588565b6119af6020830184611588565b9392505050565b60006119c96119c484610fc0565b610fa5565b9050828152602081018484840111156119e5576119e4610f2f565b5b6119f08482856115a2565b509392505050565b600082601f830112611a0d57611a0c610f2a565b5b8151611a1d8482602086016119b6565b91505092915050565b600060208284031215611a3c57611a3b610eea565b5b600082015167ffffffffffffffff811115611a5a57611a59610eef565b5b611a66848285016119f8565b91505092915050565b6000608082019050611a846000830187611588565b611a916020830186611588565b611a9e6040830185611588565b8181036060830152611ab081846115cc565b905095945050505050565b6000606082019050611ad06000830186611588565b8181036020830152611ae281856115cc565b9050611af16040830184611605565b949350505050565b600081519050611b08816110a2565b92915050565b600060208284031215611b2457611b23610eea565b5b6000611b3284828501611af9565b91505092915050565b7f61757468656e7469636174696f6e206661696c65642100000000000000000000600082015250565b6000611b7160168361150b565b9150611b7c82611b3b565b602082019050919050565b60006020820190508181036000830152611ba081611b64565b9050919050565b7f77726f6e6720636f64652c20796f7520646f206e6f742068617665207468652060008201527f726967687420746f206769766520666565646261636b20746f2074686973206d60208201527f6f64756c65210000000000000000000000000000000000000000000000000000604082015250565b6000611c2960468361150b565b9150611c3482611ba7565b606082019050919050565b60006020820190508181036000830152611c5881611c1c565b9050919050565b7f596f75206861766520616c726561647920676976656e20666565646261636b2060008201527f6f6e20746865206d6f64756c6521000000000000000000000000000000000000602082015250565b6000611cbb602e8361150b565b9150611cc682611c5f565b604082019050919050565b60006020820190508181036000830152611cea81611cae565b9050919050565b6000604082019050611d066000830185611588565b8181036020830152611d1881846115cc565b9050939250505056fea2646970667358221220451eca737a87990f928ca845c7c2982312505e320ac3be1f7e488c7a6867864564736f6c63430008130033",
  "immutableReferences": {},
  "source": "//SPDX-License-Identifier: UNLICENSED\npragma solidity ^0.8.19;\n\nimport \"./Student.sol\";\nimport \"./Module.sol\";\nimport \"./Teacher.sol\";\n\ncontract School {\n\n    address organizer;\n    Module moduleManager;\n    Teacher teacherManager;\n    Student studentManager;\n    address[] student;\n    address[] teacher;\n  \n    mapping(uint256 => mapping(uint256 => bool)) record;  // record whether students provided feedback on certain course\n\n    constructor (Student studentAddress, Module moduleAddress, Teacher teacherAddress){\n        organizer = msg.sender;\n        studentManager = studentAddress;\n        moduleManager = moduleAddress;\n        teacherManager = teacherAddress;\n    }\n    event TeacherCreated ();\n    event StudentCreated ();\n    event ModuleCreated ();\n    event FeedbackRecieved ();\n    event Feedback2Teacher();\n\n    //---------TEACHER FUNCTION\n    function setTeacher(uint256 _moduleNumber, string memory _info,\n                address _school, address _self, uint256[] memory _moduleList) public {\n\n        require(_school == msg.sender, \"only school can create student\");\n\n        uint256 newTeacherId = teacherManager.add(_moduleNumber,_info,_self);\n        teacherManager.setModuleList(newTeacherId,_moduleList);\n        teacher.push(_self);\n\n        emit TeacherCreated ();\n    }\n\n    function feedbackToTeacher(uint256 _moduleId) external {\n        \n        require(organizer == msg.sender, \"only school can send feedback to teacher\");\n        uint256 _teacherId = moduleManager.getModuleTeacher(_moduleId);\n\n        for(uint256 i = 0;i <= moduleManager.getModuleFeedbackCount(_moduleId);i++)\n        {\n            string memory _context = moduleManager.getModuleStudentFeedback(_moduleId, i);\n            teacherManager.putFeedbackRecord(_teacherId, i, _moduleId, _context);  //  put the feedback to the according teacher for their reference\n\n        }\n        emit Feedback2Teacher();\n    }\n    //----------END OF TEACHER FUNCTION\n\n    //---------STUDENT FUNCTION\n    function setStudent(uint256 _moduleNumber, address _school, \n                address _self, uint256[] memory _moduleList) public {\n\n        require(_school == msg.sender, \"only school can create student\");\n\n        uint256 newStudentId = studentManager.add(_moduleNumber,_self);\n        studentManager.setModuleList(newStudentId,_moduleList);\n        student.push(_self);\n        for(uint256 i = 0;i < _moduleNumber;i++)\n        {\n            record[newStudentId][i] = false;\n        }\n\n        emit StudentCreated ();\n    }\n\n    function giveFeedback(uint256 _studentId, uint256 _moduleId,\n            string memory _context, string memory _code) external {\n        address studentAddress = studentManager.getStudentAddress(_studentId);\n        require(studentAddress == msg.sender, \"authentication failed!\");\n        string memory moduleCode = moduleManager.getModuleCode(_moduleId);\n        require(isEqual(moduleCode, _code), \"wrong code, you do not have the right to give feedback to this module!\");\n        require(record[_studentId][_moduleId] == false, \"You have already given feedback on the module!\");\n\n        moduleManager.putModuleStudentFeedback(_moduleId, _context);  //  push the context into the according module's feedback list\n\n        record[_studentId][_moduleId] = true;\n        // ensure the students can only give feedback to each module once\n        emit FeedbackRecieved ();\n    }\n    //----------END OF STUDENT FUNCTION\n\n    //---------MODULE FUNCTION\n    function setModule(uint256 _studentNumber, string memory _code, string memory _intro,\n                address _school, address _teacher, uint256 _teacherId) public {\n\n        require(_school == msg.sender, \"only school can create module\");\n\n        uint256 newModuleId = moduleManager.add(_studentNumber, _code, _intro, _teacher, _teacherId);\n\n\n        emit ModuleCreated ();\n    }\n    //----------END OF MODULE FUNCTION\n\n    //----------HELPER FUNCTION\n    function isEqual(string memory a, string memory b) public pure returns (bool) \n    {\n        bytes memory aa = bytes(a);\n        bytes memory bb = bytes(b);\n        \n        if (aa.length != bb.length) return false;\n       \n        for(uint i = 0; i < aa.length; i ++) {\n            if(aa[i] != bb[i]) return false;\n        }\n \n        return true;\n    }\n\n}",
  "sourcePath": "/Users/wurunpu/Downloads/semester 1/FT5004/lab3/contracts/School.sol",
  "compiler": {
    "name": "solc",
    "version": "0.8.19+commit.7dd6d404.Emscripten.clang"
  },
  "schemaVersion": "3.4.13",
  "updatedAt": "2023-04-13T06:48:01.419Z",
  "networkType": "ethereum",
  "devdoc": {
    "kind": "dev",
    "methods": {},
    "version": 1
  },
  "userdoc": {
    "kind": "user",
    "methods": {},
    "version": 1
  }
}