{
  "contractName": "Student",
  "abi": [
    {
      "inputs": [],
      "name": "numStudents",
      "outputs": [
        {
          "internalType": "uint256",
          "name": "",
          "type": "uint256"
        }
      ],
      "stateMutability": "view",
      "type": "function",
      "constant": true
    },
    {
      "inputs": [
        {
          "internalType": "uint256",
          "name": "",
          "type": "uint256"
        }
      ],
      "name": "students",
      "outputs": [
        {
          "internalType": "uint256",
          "name": "studentId",
          "type": "uint256"
        },
        {
          "internalType": "uint256",
          "name": "moduleNumber",
          "type": "uint256"
        },
        {
          "internalType": "address",
          "name": "school",
          "type": "address"
        },
        {
          "internalType": "address",
          "name": "self",
          "type": "address"
        }
      ],
      "stateMutability": "view",
      "type": "function",
      "constant": true
    },
    {
      "inputs": [
        {
          "internalType": "uint256",
          "name": "moduleNumber",
          "type": "uint256"
        },
        {
          "internalType": "address",
          "name": "self",
          "type": "address"
        }
      ],
      "name": "add",
      "outputs": [
        {
          "internalType": "uint256",
          "name": "",
          "type": "uint256"
        }
      ],
      "stateMutability": "nonpayable",
      "type": "function"
    },
    {
      "inputs": [
        {
          "internalType": "uint256",
          "name": "studentId",
          "type": "uint256"
        }
      ],
      "name": "destroyStudent",
      "outputs": [],
      "stateMutability": "nonpayable",
      "type": "function"
    },
    {
      "inputs": [
        {
          "internalType": "uint256",
          "name": "studentId",
          "type": "uint256"
        }
      ],
      "name": "getmModuleNumber",
      "outputs": [
        {
          "internalType": "uint256",
          "name": "",
          "type": "uint256"
        }
      ],
      "stateMutability": "view",
      "type": "function",
      "constant": true
    },
    {
      "inputs": [
        {
          "internalType": "uint256",
          "name": "studentId",
          "type": "uint256"
        }
      ],
      "name": "getStudentAddress",
      "outputs": [
        {
          "internalType": "address",
          "name": "",
          "type": "address"
        }
      ],
      "stateMutability": "view",
      "type": "function",
      "constant": true
    },
    {
      "inputs": [
        {
          "internalType": "uint256",
          "name": "studentId",
          "type": "uint256"
        }
      ],
      "name": "getModuleList",
      "outputs": [
        {
          "internalType": "uint256[]",
          "name": "",
          "type": "uint256[]"
        }
      ],
      "stateMutability": "view",
      "type": "function",
      "constant": true
    },
    {
      "inputs": [
        {
          "internalType": "uint256",
          "name": "studentId",
          "type": "uint256"
        },
        {
          "internalType": "uint256[]",
          "name": "_moduleList",
          "type": "uint256[]"
        }
      ],
      "name": "setModuleList",
      "outputs": [],
      "stateMutability": "nonpayable",
      "type": "function"
    }
  ],
  "bytecode": "0x60806040526000805534801561001457600080fd5b50610b9d806100246000396000f3fe608060405234801561001057600080fd5b50600436106100885760003560e01c8063782e4be21161005b578063782e4be21461013e5780638a94b1f41461015a578063e67651ac14610176578063eaf62657146101a657610088565b806306ead22e1461008d5780630afad82d146100c05780632b8bbbe8146100de578063616c2ad31461010e575b600080fd5b6100a760048036038101906100a291906106c3565b6101d6565b6040516100b79493929190610740565b60405180910390f35b6100c8610246565b6040516100d59190610785565b60405180910390f35b6100f860048036038101906100f391906107cc565b61024c565b6040516101059190610785565b60405180910390f35b610128600480360381019061012391906106c3565b610405565b60405161013591906108ca565b60405180910390f35b61015860048036038101906101539190610a45565b610483565b005b610174600480360381019061016f91906106c3565b6104c2565b005b610190600480360381019061018b91906106c3565b61056e565b60405161019d9190610aa1565b60405180910390f35b6101c060048036038101906101bb91906106c3565b6105be565b6040516101cd9190610785565b60405180910390f35b60016020528060005260406000206000915090508060000154908060010154908060020160009054906101000a900473ffffffffffffffffffffffffffffffffffffffff16908060030160009054906101000a900473ffffffffffffffffffffffffffffffffffffffff16905084565b60005481565b600080831161025a57600080fd5b60008367ffffffffffffffff81111561027657610275610902565b5b6040519080825280602002602001820160405280156102a45781602001602082028036833780820191505090505b50905060006040518060a00160405280600081526020018681526020013373ffffffffffffffffffffffffffffffffffffffff1681526020018573ffffffffffffffffffffffffffffffffffffffff168152602001838152509050600080600081548092919061031390610aeb565b919050559050808260000181815250508160016000838152602001908152602001600020600082015181600001556020820151816001015560408201518160020160006101000a81548173ffffffffffffffffffffffffffffffffffffffff021916908373ffffffffffffffffffffffffffffffffffffffff16021790555060608201518160030160006101000a81548173ffffffffffffffffffffffffffffffffffffffff021916908373ffffffffffffffffffffffffffffffffffffffff16021790555060808201518160040190805190602001906103f59291906105ee565b5090505080935050505092915050565b606081600054811061041657600080fd5b6001600084815260200190815260200160002060040180548060200260200160405190810160405280929190818152602001828054801561047657602002820191906000526020600020905b815481526020019060010190808311610462575b5050505050915050919050565b81600054811061049257600080fd5b816001600085815260200190815260200160002060040190805190602001906104bc9291906105ee565b50505050565b8060005481106104d157600080fd5b6001600083815260200190815260200160002060008082016000905560018201600090556002820160006101000a81549073ffffffffffffffffffffffffffffffffffffffff02191690556003820160006101000a81549073ffffffffffffffffffffffffffffffffffffffff0219169055600482016000610553919061063b565b505060016000546105649190610b33565b6000819055505050565b600081600054811061057f57600080fd5b6001600084815260200190815260200160002060030160009054906101000a900473ffffffffffffffffffffffffffffffffffffffff16915050919050565b60008160005481106105cf57600080fd5b6001600084815260200190815260200160002060010154915050919050565b82805482825590600052602060002090810192821561062a579160200282015b8281111561062957825182559160200191906001019061060e565b5b509050610637919061065c565b5090565b5080546000825590600052602060002090810190610659919061065c565b50565b5b8082111561067557600081600090555060010161065d565b5090565b6000604051905090565b600080fd5b600080fd5b6000819050919050565b6106a08161068d565b81146106ab57600080fd5b50565b6000813590506106bd81610697565b92915050565b6000602082840312156106d9576106d8610683565b5b60006106e7848285016106ae565b91505092915050565b6106f98161068d565b82525050565b600073ffffffffffffffffffffffffffffffffffffffff82169050919050565b600061072a826106ff565b9050919050565b61073a8161071f565b82525050565b600060808201905061075560008301876106f0565b61076260208301866106f0565b61076f6040830185610731565b61077c6060830184610731565b95945050505050565b600060208201905061079a60008301846106f0565b92915050565b6107a98161071f565b81146107b457600080fd5b50565b6000813590506107c6816107a0565b92915050565b600080604083850312156107e3576107e2610683565b5b60006107f1858286016106ae565b9250506020610802858286016107b7565b9150509250929050565b600081519050919050565b600082825260208201905092915050565b6000819050602082019050919050565b6108418161068d565b82525050565b60006108538383610838565b60208301905092915050565b6000602082019050919050565b60006108778261080c565b6108818185610817565b935061088c83610828565b8060005b838110156108bd5781516108a48882610847565b97506108af8361085f565b925050600181019050610890565b5085935050505092915050565b600060208201905081810360008301526108e4818461086c565b905092915050565b600080fd5b6000601f19601f8301169050919050565b7f4e487b7100000000000000000000000000000000000000000000000000000000600052604160045260246000fd5b61093a826108f1565b810181811067ffffffffffffffff8211171561095957610958610902565b5b80604052505050565b600061096c610679565b90506109788282610931565b919050565b600067ffffffffffffffff82111561099857610997610902565b5b602082029050602081019050919050565b600080fd5b60006109c16109bc8461097d565b610962565b905080838252602082019050602084028301858111156109e4576109e36109a9565b5b835b81811015610a0d57806109f988826106ae565b8452602084019350506020810190506109e6565b5050509392505050565b600082601f830112610a2c57610a2b6108ec565b5b8135610a3c8482602086016109ae565b91505092915050565b60008060408385031215610a5c57610a5b610683565b5b6000610a6a858286016106ae565b925050602083013567ffffffffffffffff811115610a8b57610a8a610688565b5b610a9785828601610a17565b9150509250929050565b6000602082019050610ab66000830184610731565b92915050565b7f4e487b7100000000000000000000000000000000000000000000000000000000600052601160045260246000fd5b6000610af68261068d565b91507fffffffffffffffffffffffffffffffffffffffffffffffffffffffffffffffff8203610b2857610b27610abc565b5b600182019050919050565b6000610b3e8261068d565b9150610b498361068d565b9250828203905081811115610b6157610b60610abc565b5b9291505056fea2646970667358221220ba21b8f5f4dcfc46f0510eb03e3134373de38d95f483bc93336303f3a77f321664736f6c63430008130033",
  "immutableReferences": {},
  "source": "pragma solidity ^0.8.19;\n\ncontract Student {\n    \n    \n    struct student {\n     \n        uint256 studentId;\n        uint256 moduleNumber;\n       \n        address school;\n        address self;\n        uint256[] moduleList;\n    }\n    \n    \n    uint256 public numStudents = 0;\n    mapping(uint256 => student) public students;\n\n    //function to create a new student, and add to 'students' map. \n    function add(\n        uint256 moduleNumber,\n        address self\n        // uint256[] memory moduleList\n    ) public returns(uint256) {\n        require(moduleNumber > 0);\n        uint256[] memory moduleList = new uint256[](moduleNumber);\n        //new student object\n        student memory newStudent = student (\n            0,   // here we add the initalization of studentID to 0\n            moduleNumber,\n            msg.sender,  //shcool\n            self,\n            moduleList\n        );\n        \n        uint256 newStudentId = numStudents++;\n        newStudent.studentId = newStudentId;\n        students[newStudentId] = newStudent; //commit to state variable\n        return newStudentId;   //return new studentId\n    }\n\n    \n    modifier validStudentId(uint256 studentId) {\n        require(studentId < numStudents);\n        _;\n    }\n\n    //Destroy student\n    function destroyStudent(uint256 studentId) public validStudentId(studentId) {\n        delete students[studentId];\n        numStudents = numStudents - 1;\n    }\n    //get module number of this student   \n    function getmModuleNumber(uint256 studentId) public view validStudentId(studentId) returns (uint256) {\n        return students[studentId].moduleNumber;\n    }\n    //get address of this student\n    function getStudentAddress(uint256 studentId) public view validStudentId(studentId) returns (address) {\n        return students[studentId].self;\n    }\n    //get module list of this student\n    function getModuleList(uint256 studentId) public view validStudentId(studentId) returns (uint256[] memory) {\n        return students[studentId].moduleList;\n    }\n    //set module list of this student\n    function setModuleList(uint256 studentId, uint256[] memory _moduleList) public validStudentId(studentId) {\n        students[studentId].moduleList = _moduleList;\n    }\n    \n    //get student feedback of this module !!!here need attention string[]\n    // function getModuleStudentFeedback(uint256 moduleId) public view validModuleId(moduleId) returns (string[] memory) {\n    //     return modules[moduleId].studentFeedback;\n    // }\n}\n\n",
  "sourcePath": "/Users/wurunpu/Downloads/semester 1/FT5004/lab3/contracts/Student.sol",
  "compiler": {
    "name": "solc",
    "version": "0.8.19+commit.7dd6d404.Emscripten.clang"
  },
  "schemaVersion": "3.4.13",
  "updatedAt": "2023-04-13T06:48:01.408Z",
  "networkType": "ethereum",
  "devdoc": {
    "kind": "dev",
    "methods": {},
    "version": 1
  },
  "userdoc": {
    "kind": "user",
    "methods": {},
    "version": 1
  }
}