{
  "contractName": "Teacher",
  "abi": [
    {
      "inputs": [],
      "name": "numTeachers",
      "outputs": [
        {
          "internalType": "uint256",
          "name": "",
          "type": "uint256"
        }
      ],
      "stateMutability": "view",
      "type": "function",
      "constant": true
    },
    {
      "inputs": [
        {
          "internalType": "uint256",
          "name": "",
          "type": "uint256"
        }
      ],
      "name": "teachers",
      "outputs": [
        {
          "internalType": "uint256",
          "name": "teacherId",
          "type": "uint256"
        },
        {
          "internalType": "uint256",
          "name": "moduleNumber",
          "type": "uint256"
        },
        {
          "internalType": "string",
          "name": "intro",
          "type": "string"
        },
        {
          "internalType": "address",
          "name": "school",
          "type": "address"
        },
        {
          "internalType": "address",
          "name": "self",
          "type": "address"
        }
      ],
      "stateMutability": "view",
      "type": "function",
      "constant": true
    },
    {
      "inputs": [
        {
          "internalType": "uint256",
          "name": "moduleNumber",
          "type": "uint256"
        },
        {
          "internalType": "string",
          "name": "intro",
          "type": "string"
        },
        {
          "internalType": "address",
          "name": "self",
          "type": "address"
        }
      ],
      "name": "add",
      "outputs": [
        {
          "internalType": "uint256",
          "name": "",
          "type": "uint256"
        }
      ],
      "stateMutability": "nonpayable",
      "type": "function"
    },
    {
      "inputs": [
        {
          "internalType": "uint256",
          "name": "teacherId",
          "type": "uint256"
        }
      ],
      "name": "destroyTeacher",
      "outputs": [],
      "stateMutability": "nonpayable",
      "type": "function"
    },
    {
      "inputs": [
        {
          "internalType": "uint256",
          "name": "teacherId",
          "type": "uint256"
        }
      ],
      "name": "getmModuleNumber",
      "outputs": [
        {
          "internalType": "uint256",
          "name": "",
          "type": "uint256"
        }
      ],
      "stateMutability": "view",
      "type": "function",
      "constant": true
    },
    {
      "inputs": [
        {
          "internalType": "uint256",
          "name": "teacherId",
          "type": "uint256"
        }
      ],
      "name": "getTeacherAddress",
      "outputs": [
        {
          "internalType": "address",
          "name": "",
          "type": "address"
        }
      ],
      "stateMutability": "view",
      "type": "function",
      "constant": true
    },
    {
      "inputs": [
        {
          "internalType": "uint256",
          "name": "teacherId",
          "type": "uint256"
        }
      ],
      "name": "getTeacherIntro",
      "outputs": [
        {
          "internalType": "string",
          "name": "",
          "type": "string"
        }
      ],
      "stateMutability": "view",
      "type": "function",
      "constant": true
    },
    {
      "inputs": [
        {
          "internalType": "uint256",
          "name": "teacherId",
          "type": "uint256"
        }
      ],
      "name": "getModuleList",
      "outputs": [
        {
          "internalType": "uint256[]",
          "name": "",
          "type": "uint256[]"
        }
      ],
      "stateMutability": "view",
      "type": "function",
      "constant": true
    },
    {
      "inputs": [
        {
          "internalType": "uint256",
          "name": "teacherId",
          "type": "uint256"
        },
        {
          "internalType": "uint256[]",
          "name": "_moduleList",
          "type": "uint256[]"
        }
      ],
      "name": "setModuleList",
      "outputs": [],
      "stateMutability": "nonpayable",
      "type": "function"
    },
    {
      "inputs": [
        {
          "internalType": "uint256",
          "name": "_teacherId",
          "type": "uint256"
        },
        {
          "internalType": "uint256",
          "name": "_feedbackId",
          "type": "uint256"
        },
        {
          "internalType": "uint256",
          "name": "_moduleId",
          "type": "uint256"
        },
        {
          "internalType": "string",
          "name": "context",
          "type": "string"
        }
      ],
      "name": "putFeedbackRecord",
      "outputs": [],
      "stateMutability": "nonpayable",
      "type": "function"
    }
  ],
  "bytecode": "0x6080604052600060015534801561001557600080fd5b506112f6806100256000396000f3fe608060405234801561001057600080fd5b506004361061009e5760003560e01c8063782e4be211610066578063782e4be214610185578063877e23ad146101a1578063995ae44c146101bd5780639a91fe66146101d9578063eaf62657146102095761009e565b806334ac0b40146100a35780633d0cef8d146100d7578063611bfce6146100f5578063616c2ad314610125578063723e451a14610155575b600080fd5b6100bd60048036038101906100b89190610921565b610239565b6040516100ce959493929190610a2e565b60405180910390f35b6100df610337565b6040516100ec9190610a88565b60405180910390f35b61010f600480360381019061010a9190610c04565b61033d565b60405161011c9190610a88565b60405180910390f35b61013f600480360381019061013a9190610921565b610514565b60405161014c9190610d31565b60405180910390f35b61016f600480360381019061016a9190610921565b610592565b60405161017c9190610d53565b60405180910390f35b61019f600480360381019061019a9190610e36565b6105e2565b005b6101bb60048036038101906101b69190610921565b610621565b005b6101d760048036038101906101d29190610e92565b6106dc565b005b6101f360048036038101906101ee9190610921565b610724565b6040516102009190610f15565b60405180910390f35b610223600480360381019061021e9190610921565b6107dc565b6040516102309190610a88565b60405180910390f35b600260205280600052604060002060009150905080600001549080600101549080600201805461026890610f66565b80601f016020809104026020016040519081016040528092919081815260200182805461029490610f66565b80156102e15780601f106102b6576101008083540402835291602001916102e1565b820191906000526020600020905b8154815290600101906020018083116102c457829003601f168201915b5050505050908060030160009054906101000a900473ffffffffffffffffffffffffffffffffffffffff16908060040160009054906101000a900473ffffffffffffffffffffffffffffffffffffffff16905085565b60015481565b600080841161034b57600080fd5b60008467ffffffffffffffff81111561036757610366610aad565b5b6040519080825280602002602001820160405280156103955781602001602082028036833780820191505090505b50905060006040518060c00160405280600081526020018781526020018681526020013373ffffffffffffffffffffffffffffffffffffffff1681526020018573ffffffffffffffffffffffffffffffffffffffff16815260200183815250905060006001600081548092919061040b90610fc6565b9190505590508082600001818152505081600260008381526020019081526020016000206000820151816000015560208201518160010155604082015181600201908161045891906111ba565b5060608201518160030160006101000a81548173ffffffffffffffffffffffffffffffffffffffff021916908373ffffffffffffffffffffffffffffffffffffffff16021790555060808201518160040160006101000a81548173ffffffffffffffffffffffffffffffffffffffff021916908373ffffffffffffffffffffffffffffffffffffffff16021790555060a082015181600501908051906020019061050392919061080c565b509050508093505050509392505050565b606081600154811061052557600080fd5b6002600084815260200190815260200160002060050180548060200260200160405190810160405280929190818152602001828054801561058557602002820191906000526020600020905b815481526020019060010190808311610571575b5050505050915050919050565b60008160015481106105a357600080fd5b6002600084815260200190815260200160002060040160009054906101000a900473ffffffffffffffffffffffffffffffffffffffff16915050919050565b8160015481106105f157600080fd5b8160026000858152602001908152602001600020600501908051906020019061061b92919061080c565b50505050565b80600154811061063057600080fd5b6002600083815260200190815260200160002060008082016000905560018201600090556002820160006106649190610859565b6003820160006101000a81549073ffffffffffffffffffffffffffffffffffffffff02191690556004820160006101000a81549073ffffffffffffffffffffffffffffffffffffffff02191690556005820160006106c29190610899565b5050600180546106d2919061128c565b6001819055505050565b8060008086815260200190815260200160002060008481526020019081526020016000206000858152602001908152602001600020908161071d91906111ba565b5050505050565b606081600154811061073557600080fd5b60026000848152602001908152602001600020600201805461075690610f66565b80601f016020809104026020016040519081016040528092919081815260200182805461078290610f66565b80156107cf5780601f106107a4576101008083540402835291602001916107cf565b820191906000526020600020905b8154815290600101906020018083116107b257829003601f168201915b5050505050915050919050565b60008160015481106107ed57600080fd5b6002600084815260200190815260200160002060010154915050919050565b828054828255906000526020600020908101928215610848579160200282015b8281111561084757825182559160200191906001019061082c565b5b50905061085591906108ba565b5090565b50805461086590610f66565b6000825580601f106108775750610896565b601f01602090049060005260206000209081019061089591906108ba565b5b50565b50805460008255906000526020600020908101906108b791906108ba565b50565b5b808211156108d35760008160009055506001016108bb565b5090565b6000604051905090565b600080fd5b600080fd5b6000819050919050565b6108fe816108eb565b811461090957600080fd5b50565b60008135905061091b816108f5565b92915050565b600060208284031215610937576109366108e1565b5b60006109458482850161090c565b91505092915050565b610957816108eb565b82525050565b600081519050919050565b600082825260208201905092915050565b60005b8381101561099757808201518184015260208101905061097c565b60008484015250505050565b6000601f19601f8301169050919050565b60006109bf8261095d565b6109c98185610968565b93506109d9818560208601610979565b6109e2816109a3565b840191505092915050565b600073ffffffffffffffffffffffffffffffffffffffff82169050919050565b6000610a18826109ed565b9050919050565b610a2881610a0d565b82525050565b600060a082019050610a43600083018861094e565b610a50602083018761094e565b8181036040830152610a6281866109b4565b9050610a716060830185610a1f565b610a7e6080830184610a1f565b9695505050505050565b6000602082019050610a9d600083018461094e565b92915050565b600080fd5b600080fd5b7f4e487b7100000000000000000000000000000000000000000000000000000000600052604160045260246000fd5b610ae5826109a3565b810181811067ffffffffffffffff82111715610b0457610b03610aad565b5b80604052505050565b6000610b176108d7565b9050610b238282610adc565b919050565b600067ffffffffffffffff821115610b4357610b42610aad565b5b610b4c826109a3565b9050602081019050919050565b82818337600083830152505050565b6000610b7b610b7684610b28565b610b0d565b905082815260208101848484011115610b9757610b96610aa8565b5b610ba2848285610b59565b509392505050565b600082601f830112610bbf57610bbe610aa3565b5b8135610bcf848260208601610b68565b91505092915050565b610be181610a0d565b8114610bec57600080fd5b50565b600081359050610bfe81610bd8565b92915050565b600080600060608486031215610c1d57610c1c6108e1565b5b6000610c2b8682870161090c565b935050602084013567ffffffffffffffff811115610c4c57610c4b6108e6565b5b610c5886828701610baa565b9250506040610c6986828701610bef565b9150509250925092565b600081519050919050565b600082825260208201905092915050565b6000819050602082019050919050565b610ca8816108eb565b82525050565b6000610cba8383610c9f565b60208301905092915050565b6000602082019050919050565b6000610cde82610c73565b610ce88185610c7e565b9350610cf383610c8f565b8060005b83811015610d24578151610d0b8882610cae565b9750610d1683610cc6565b925050600181019050610cf7565b5085935050505092915050565b60006020820190508181036000830152610d4b8184610cd3565b905092915050565b6000602082019050610d686000830184610a1f565b92915050565b600067ffffffffffffffff821115610d8957610d88610aad565b5b602082029050602081019050919050565b600080fd5b6000610db2610dad84610d6e565b610b0d565b90508083825260208201905060208402830185811115610dd557610dd4610d9a565b5b835b81811015610dfe5780610dea888261090c565b845260208401935050602081019050610dd7565b5050509392505050565b600082601f830112610e1d57610e1c610aa3565b5b8135610e2d848260208601610d9f565b91505092915050565b60008060408385031215610e4d57610e4c6108e1565b5b6000610e5b8582860161090c565b925050602083013567ffffffffffffffff811115610e7c57610e7b6108e6565b5b610e8885828601610e08565b9150509250929050565b60008060008060808587031215610eac57610eab6108e1565b5b6000610eba8782880161090c565b9450506020610ecb8782880161090c565b9350506040610edc8782880161090c565b925050606085013567ffffffffffffffff811115610efd57610efc6108e6565b5b610f0987828801610baa565b91505092959194509250565b60006020820190508181036000830152610f2f81846109b4565b905092915050565b7f4e487b7100000000000000000000000000000000000000000000000000000000600052602260045260246000fd5b60006002820490506001821680610f7e57607f821691505b602082108103610f9157610f90610f37565b5b50919050565b7f4e487b7100000000000000000000000000000000000000000000000000000000600052601160045260246000fd5b6000610fd1826108eb565b91507fffffffffffffffffffffffffffffffffffffffffffffffffffffffffffffffff820361100357611002610f97565b5b600182019050919050565b60008190508160005260206000209050919050565b60006020601f8301049050919050565b600082821b905092915050565b6000600883026110707fffffffffffffffffffffffffffffffffffffffffffffffffffffffffffffffff82611033565b61107a8683611033565b95508019841693508086168417925050509392505050565b6000819050919050565b60006110b76110b26110ad846108eb565b611092565b6108eb565b9050919050565b6000819050919050565b6110d18361109c565b6110e56110dd826110be565b848454611040565b825550505050565b600090565b6110fa6110ed565b6111058184846110c8565b505050565b5b818110156111295761111e6000826110f2565b60018101905061110b565b5050565b601f82111561116e5761113f8161100e565b61114884611023565b81016020851015611157578190505b61116b61116385611023565b83018261110a565b50505b505050565b600082821c905092915050565b600061119160001984600802611173565b1980831691505092915050565b60006111aa8383611180565b9150826002028217905092915050565b6111c38261095d565b67ffffffffffffffff8111156111dc576111db610aad565b5b6111e68254610f66565b6111f182828561112d565b600060209050601f8311600181146112245760008415611212578287015190505b61121c858261119e565b865550611284565b601f1984166112328661100e565b60005b8281101561125a57848901518255600182019150602085019450602081019050611235565b868310156112775784890151611273601f891682611180565b8355505b6001600288020188555050505b505050505050565b6000611297826108eb565b91506112a2836108eb565b92508282039050818111156112ba576112b9610f97565b5b9291505056fea264697066735822122047edd348df36ec6968e4173a95d1413f8b5f3a17c852403a3114dfc622b4b23064736f6c63430008130033",
  "immutableReferences": {},
  "source": "pragma solidity ^0.8.19;\n\ncontract Teacher {\n    \n    \n    struct teacher {\n     \n        uint256 teacherId;\n        uint256 moduleNumber;\n        string intro;\n       \n        address school;\n        address self;\n        uint256[] moduleList;\n        // string[] studentFeedback;\n    }\n    mapping(uint256 => mapping(uint256 => mapping(uint256 => string))) feedbackRecord;   // fetch and store the feedback for every module \n    \n    \n    uint256 public numTeachers = 0;\n    mapping(uint256 => teacher) public teachers;\n\n    //function to create a new module, and add to 'modules' map. \n    function add(\n        uint256 moduleNumber,\n        string memory intro,\n        address self\n    ) public returns(uint256) {\n        require(moduleNumber > 0);\n        uint256[] memory moduleList = new uint256[](moduleNumber);\n        //new teacher object\n        teacher memory newTeacher = teacher (\n            0,   // here we add the initalization of teacherID to 0\n            moduleNumber,\n            intro, \n            msg.sender,  //shcool\n            self,\n            moduleList\n        );\n        \n        uint256 newTeacherId = numTeachers++;\n        newTeacher.teacherId = newTeacherId;\n        teachers[newTeacherId] = newTeacher; //commit to state variable\n        return newTeacherId;   //return new teacherId\n    }\n\n    \n    modifier validTeacherId(uint256 teacherId) {\n        require(teacherId < numTeachers);\n        _;\n    }\n\n    //Destroy teacher\n    function destroyTeacher(uint256 teacherId) public validTeacherId(teacherId) {\n        delete teachers[teacherId];\n        numTeachers = numTeachers - 1;\n\n    }\n\n    //get module number of this teacher   \n    function getmModuleNumber(uint256 teacherId) public view validTeacherId(teacherId) returns (uint256) {\n        return teachers[teacherId].moduleNumber;\n    }\n\n    //get address of this teacher   \n    function getTeacherAddress(uint256 teacherId) public view validTeacherId(teacherId) returns (address) {\n        return teachers[teacherId].self;\n    }\n\n    //get intro of this teacher\n    function getTeacherIntro(uint256 teacherId) public view validTeacherId(teacherId) returns (string memory) {\n        return teachers[teacherId].intro;\n    }\n\n    //get module list of this teacher\n    function getModuleList(uint256 teacherId) public view validTeacherId(teacherId) returns (uint256[] memory) {\n        return teachers[teacherId].moduleList;\n    }\n    //set module list of this teacher\n    function setModuleList(uint256 teacherId, uint256[] memory _moduleList) public validTeacherId(teacherId) {\n        teachers[teacherId].moduleList = _moduleList;\n    }\n    function putFeedbackRecord(uint256 _teacherId, uint256 _feedbackId, uint256 _moduleId, string memory context) public\n    {\n        feedbackRecord[_teacherId][_moduleId][_feedbackId] = context;\n    }\n    \n    //get student feedback of this module !!!here need attention string[]\n    // function getModuleStudentFeedback(uint256 moduleId) public view validModuleId(moduleId) returns (string[] memory) {\n    //     return modules[moduleId].studentFeedback;\n    // }\n}\n\n",
  "sourcePath": "/Users/wurunpu/Downloads/semester 1/FT5004/lab3/contracts/Teacher.sol",
  "compiler": {
    "name": "solc",
    "version": "0.8.19+commit.7dd6d404.Emscripten.clang"
  },
  "schemaVersion": "3.4.13",
  "updatedAt": "2023-04-13T06:48:01.412Z",
  "networkType": "ethereum",
  "devdoc": {
    "kind": "dev",
    "methods": {},
    "version": 1
  },
  "userdoc": {
    "kind": "user",
    "methods": {},
    "version": 1
  }
}